{
  "_format": "hh-sol-artifact-1",
  "contractName": "TicketMaster",
  "sourceName": "contracts/TicketMaster.sol",
  "abi": [
    {
      "inputs": [],
      "stateMutability": "nonpayable",
      "type": "constructor"
    },
    {
      "inputs": [
        {
          "internalType": "address",
          "name": "sender",
          "type": "address"
        },
        {
          "internalType": "uint256",
          "name": "tokenId",
          "type": "uint256"
        },
        {
          "internalType": "address",
          "name": "owner",
          "type": "address"
        }
      ],
      "name": "ERC721IncorrectOwner",
      "type": "error"
    },
    {
      "inputs": [
        {
          "internalType": "address",
          "name": "operator",
          "type": "address"
        },
        {
          "internalType": "uint256",
          "name": "tokenId",
          "type": "uint256"
        }
      ],
      "name": "ERC721InsufficientApproval",
      "type": "error"
    },
    {
      "inputs": [
        {
          "internalType": "address",
          "name": "approver",
          "type": "address"
        }
      ],
      "name": "ERC721InvalidApprover",
      "type": "error"
    },
    {
      "inputs": [
        {
          "internalType": "address",
          "name": "operator",
          "type": "address"
        }
      ],
      "name": "ERC721InvalidOperator",
      "type": "error"
    },
    {
      "inputs": [
        {
          "internalType": "address",
          "name": "owner",
          "type": "address"
        }
      ],
      "name": "ERC721InvalidOwner",
      "type": "error"
    },
    {
      "inputs": [
        {
          "internalType": "address",
          "name": "receiver",
          "type": "address"
        }
      ],
      "name": "ERC721InvalidReceiver",
      "type": "error"
    },
    {
      "inputs": [
        {
          "internalType": "address",
          "name": "sender",
          "type": "address"
        }
      ],
      "name": "ERC721InvalidSender",
      "type": "error"
    },
    {
      "inputs": [
        {
          "internalType": "uint256",
          "name": "tokenId",
          "type": "uint256"
        }
      ],
      "name": "ERC721NonexistentToken",
      "type": "error"
    },
    {
      "inputs": [
        {
          "internalType": "address",
          "name": "owner",
          "type": "address"
        }
      ],
      "name": "OwnableInvalidOwner",
      "type": "error"
    },
    {
      "inputs": [
        {
          "internalType": "address",
          "name": "account",
          "type": "address"
        }
      ],
      "name": "OwnableUnauthorizedAccount",
      "type": "error"
    },
    {
      "anonymous": false,
      "inputs": [
        {
          "indexed": true,
          "internalType": "address",
          "name": "owner",
          "type": "address"
        },
        {
          "indexed": true,
          "internalType": "address",
          "name": "approved",
          "type": "address"
        },
        {
          "indexed": true,
          "internalType": "uint256",
          "name": "tokenId",
          "type": "uint256"
        }
      ],
      "name": "Approval",
      "type": "event"
    },
    {
      "anonymous": false,
      "inputs": [
        {
          "indexed": true,
          "internalType": "address",
          "name": "owner",
          "type": "address"
        },
        {
          "indexed": true,
          "internalType": "address",
          "name": "operator",
          "type": "address"
        },
        {
          "indexed": false,
          "internalType": "bool",
          "name": "approved",
          "type": "bool"
        }
      ],
      "name": "ApprovalForAll",
      "type": "event"
    },
    {
      "anonymous": false,
      "inputs": [
        {
          "indexed": true,
          "internalType": "address",
          "name": "previousOwner",
          "type": "address"
        },
        {
          "indexed": true,
          "internalType": "address",
          "name": "newOwner",
          "type": "address"
        }
      ],
      "name": "OwnershipTransferred",
      "type": "event"
    },
    {
      "anonymous": false,
      "inputs": [
        {
          "indexed": true,
          "internalType": "address",
          "name": "from",
          "type": "address"
        },
        {
          "indexed": true,
          "internalType": "address",
          "name": "to",
          "type": "address"
        },
        {
          "indexed": true,
          "internalType": "uint256",
          "name": "tokenId",
          "type": "uint256"
        }
      ],
      "name": "Transfer",
      "type": "event"
    },
    {
      "inputs": [
        {
          "internalType": "address",
          "name": "to",
          "type": "address"
        },
        {
          "internalType": "uint256",
          "name": "tokenId",
          "type": "uint256"
        }
      ],
      "name": "approve",
      "outputs": [],
      "stateMutability": "nonpayable",
      "type": "function"
    },
    {
      "inputs": [
        {
          "internalType": "address",
          "name": "owner",
          "type": "address"
        }
      ],
      "name": "balanceOf",
      "outputs": [
        {
          "internalType": "uint256",
          "name": "",
          "type": "uint256"
        }
      ],
      "stateMutability": "view",
      "type": "function"
    },
    {
      "inputs": [
        {
          "internalType": "uint256",
          "name": "_eventId",
          "type": "uint256"
        },
        {
          "internalType": "uint256",
          "name": "_ticketId",
          "type": "uint256"
        }
      ],
      "name": "enableResale",
      "outputs": [],
      "stateMutability": "nonpayable",
      "type": "function"
    },
    {
      "inputs": [
        {
          "internalType": "uint256",
          "name": "tokenId",
          "type": "uint256"
        }
      ],
      "name": "getApproved",
      "outputs": [
        {
          "internalType": "address",
          "name": "",
          "type": "address"
        }
      ],
      "stateMutability": "view",
      "type": "function"
    },
    {
      "inputs": [
        {
          "internalType": "uint256",
          "name": "_id",
          "type": "uint256"
        }
      ],
      "name": "getOccasion",
      "outputs": [
        {
          "components": [
            {
              "internalType": "uint256",
              "name": "id",
              "type": "uint256"
            },
            {
              "internalType": "string",
              "name": "name",
              "type": "string"
            },
            {
              "internalType": "uint256",
              "name": "cost",
              "type": "uint256"
            },
            {
              "internalType": "uint256",
              "name": "tickets",
              "type": "uint256"
            },
            {
              "internalType": "uint256",
              "name": "maxTickets",
              "type": "uint256"
            },
            {
              "internalType": "string",
              "name": "date",
              "type": "string"
            },
            {
              "internalType": "string",
              "name": "time",
              "type": "string"
            },
            {
              "internalType": "string",
              "name": "location",
              "type": "string"
            },
            {
              "internalType": "string",
              "name": "bannerImage",
              "type": "string"
            },
            {
              "internalType": "string",
              "name": "vrVideo",
              "type": "string"
            }
          ],
          "internalType": "struct TicketMaster.Occasion",
          "name": "",
          "type": "tuple"
        }
      ],
      "stateMutability": "view",
      "type": "function"
    },
    {
      "inputs": [
        {
          "internalType": "uint256",
          "name": "_id",
          "type": "uint256"
        }
      ],
      "name": "getSeatsTaken",
      "outputs": [
        {
          "internalType": "uint256[]",
          "name": "",
          "type": "uint256[]"
        }
      ],
      "stateMutability": "view",
      "type": "function"
    },
    {
      "inputs": [
        {
          "internalType": "address",
          "name": "_user",
          "type": "address"
        }
      ],
      "name": "getUserTickets",
      "outputs": [
        {
          "internalType": "uint256[]",
          "name": "",
          "type": "uint256[]"
        },
        {
          "internalType": "uint256[]",
          "name": "",
          "type": "uint256[]"
        }
      ],
      "stateMutability": "view",
      "type": "function"
    },
    {
      "inputs": [
        {
          "internalType": "uint256",
          "name": "",
          "type": "uint256"
        },
        {
          "internalType": "address",
          "name": "",
          "type": "address"
        }
      ],
      "name": "hasBought",
      "outputs": [
        {
          "internalType": "bool",
          "name": "",
          "type": "bool"
        }
      ],
      "stateMutability": "view",
      "type": "function"
    },
    {
      "inputs": [
        {
          "internalType": "address",
          "name": "owner",
          "type": "address"
        },
        {
          "internalType": "address",
          "name": "operator",
          "type": "address"
        }
      ],
      "name": "isApprovedForAll",
      "outputs": [
        {
          "internalType": "bool",
          "name": "",
          "type": "bool"
        }
      ],
      "stateMutability": "view",
      "type": "function"
    },
    {
      "inputs": [
        {
          "internalType": "string",
          "name": "_name",
          "type": "string"
        },
        {
          "internalType": "uint256",
          "name": "_cost",
          "type": "uint256"
        },
        {
          "internalType": "uint256",
          "name": "_maxTickets",
          "type": "uint256"
        },
        {
          "internalType": "string",
          "name": "_date",
          "type": "string"
        },
        {
          "internalType": "string",
          "name": "_time",
          "type": "string"
        },
        {
          "internalType": "string",
          "name": "_location",
          "type": "string"
        },
        {
          "internalType": "string",
          "name": "_bannerImage",
          "type": "string"
        }
      ],
      "name": "list",
      "outputs": [],
      "stateMutability": "nonpayable",
      "type": "function"
    },
    {
      "inputs": [
        {
          "internalType": "uint256",
          "name": "_id",
          "type": "uint256"
        },
        {
          "internalType": "uint256",
          "name": "_seat",
          "type": "uint256"
        }
      ],
      "name": "mint",
      "outputs": [],
      "stateMutability": "payable",
      "type": "function"
    },
    {
      "inputs": [],
      "name": "name",
      "outputs": [
        {
          "internalType": "string",
          "name": "",
          "type": "string"
        }
      ],
      "stateMutability": "view",
      "type": "function"
    },
    {
      "inputs": [
        {
          "internalType": "uint256",
          "name": "",
          "type": "uint256"
        }
      ],
      "name": "occasions",
      "outputs": [
        {
          "internalType": "uint256",
          "name": "id",
          "type": "uint256"
        },
        {
          "internalType": "string",
          "name": "name",
          "type": "string"
        },
        {
          "internalType": "uint256",
          "name": "cost",
          "type": "uint256"
        },
        {
          "internalType": "uint256",
          "name": "tickets",
          "type": "uint256"
        },
        {
          "internalType": "uint256",
          "name": "maxTickets",
          "type": "uint256"
        },
        {
          "internalType": "string",
          "name": "date",
          "type": "string"
        },
        {
          "internalType": "string",
          "name": "time",
          "type": "string"
        },
        {
          "internalType": "string",
          "name": "location",
          "type": "string"
        },
        {
          "internalType": "string",
          "name": "bannerImage",
          "type": "string"
        },
        {
          "internalType": "string",
          "name": "vrVideo",
          "type": "string"
        }
      ],
      "stateMutability": "view",
      "type": "function"
    },
    {
      "inputs": [],
      "name": "owner",
      "outputs": [
        {
          "internalType": "address",
          "name": "",
          "type": "address"
        }
      ],
      "stateMutability": "view",
      "type": "function"
    },
    {
      "inputs": [
        {
          "internalType": "uint256",
          "name": "tokenId",
          "type": "uint256"
        }
      ],
      "name": "ownerOf",
      "outputs": [
        {
          "internalType": "address",
          "name": "",
          "type": "address"
        }
      ],
      "stateMutability": "view",
      "type": "function"
    },
    {
      "inputs": [],
      "name": "renounceOwnership",
      "outputs": [],
      "stateMutability": "nonpayable",
      "type": "function"
    },
    {
      "inputs": [
        {
          "internalType": "uint256",
          "name": "",
          "type": "uint256"
        },
        {
          "internalType": "uint256",
          "name": "",
          "type": "uint256"
        }
      ],
      "name": "resaleAllowed",
      "outputs": [
        {
          "internalType": "bool",
          "name": "",
          "type": "bool"
        }
      ],
      "stateMutability": "view",
      "type": "function"
    },
    {
      "inputs": [
        {
          "internalType": "address",
          "name": "_to",
          "type": "address"
        },
        {
          "internalType": "uint256",
          "name": "_eventId",
          "type": "uint256"
        },
        {
          "internalType": "uint256",
          "name": "_ticketId",
          "type": "uint256"
        }
      ],
      "name": "resellTicket",
      "outputs": [],
      "stateMutability": "nonpayable",
      "type": "function"
    },
    {
      "inputs": [
        {
          "internalType": "address",
          "name": "from",
          "type": "address"
        },
        {
          "internalType": "address",
          "name": "to",
          "type": "address"
        },
        {
          "internalType": "uint256",
          "name": "tokenId",
          "type": "uint256"
        }
      ],
      "name": "safeTransferFrom",
      "outputs": [],
      "stateMutability": "nonpayable",
      "type": "function"
    },
    {
      "inputs": [
        {
          "internalType": "address",
          "name": "from",
          "type": "address"
        },
        {
          "internalType": "address",
          "name": "to",
          "type": "address"
        },
        {
          "internalType": "uint256",
          "name": "tokenId",
          "type": "uint256"
        },
        {
          "internalType": "bytes",
          "name": "data",
          "type": "bytes"
        }
      ],
      "name": "safeTransferFrom",
      "outputs": [],
      "stateMutability": "nonpayable",
      "type": "function"
    },
    {
      "inputs": [
        {
          "internalType": "uint256",
          "name": "_eventId",
          "type": "uint256"
        },
        {
          "internalType": "uint256",
          "name": "_seatId",
          "type": "uint256"
        }
      ],
      "name": "scanTicket",
      "outputs": [],
      "stateMutability": "nonpayable",
      "type": "function"
    },
    {
      "inputs": [
        {
          "internalType": "uint256",
          "name": "",
          "type": "uint256"
        },
        {
          "internalType": "uint256",
          "name": "",
          "type": "uint256"
        }
      ],
      "name": "seatTaken",
      "outputs": [
        {
          "internalType": "address",
          "name": "",
          "type": "address"
        }
      ],
      "stateMutability": "view",
      "type": "function"
    },
    {
      "inputs": [
        {
          "internalType": "uint256",
          "name": "",
          "type": "uint256"
        },
        {
          "internalType": "uint256",
          "name": "",
          "type": "uint256"
        }
      ],
      "name": "seatsTaken",
      "outputs": [
        {
          "internalType": "uint256",
          "name": "",
          "type": "uint256"
        }
      ],
      "stateMutability": "view",
      "type": "function"
    },
    {
      "inputs": [
        {
          "internalType": "address",
          "name": "operator",
          "type": "address"
        },
        {
          "internalType": "bool",
          "name": "approved",
          "type": "bool"
        }
      ],
      "name": "setApprovalForAll",
      "outputs": [],
      "stateMutability": "nonpayable",
      "type": "function"
    },
    {
      "inputs": [
        {
          "internalType": "uint256",
          "name": "_id",
          "type": "uint256"
        },
        {
          "internalType": "string",
          "name": "_vrVideo",
          "type": "string"
        }
      ],
      "name": "setVRVideo",
      "outputs": [],
      "stateMutability": "nonpayable",
      "type": "function"
    },
    {
      "inputs": [
        {
          "internalType": "bytes4",
          "name": "interfaceId",
          "type": "bytes4"
        }
      ],
      "name": "supportsInterface",
      "outputs": [
        {
          "internalType": "bool",
          "name": "",
          "type": "bool"
        }
      ],
      "stateMutability": "view",
      "type": "function"
    },
    {
      "inputs": [],
      "name": "symbol",
      "outputs": [
        {
          "internalType": "string",
          "name": "",
          "type": "string"
        }
      ],
      "stateMutability": "view",
      "type": "function"
    },
    {
      "inputs": [
        {
          "internalType": "uint256",
          "name": "",
          "type": "uint256"
        },
        {
          "internalType": "uint256",
          "name": "",
          "type": "uint256"
        }
      ],
      "name": "ticketExhausted",
      "outputs": [
        {
          "internalType": "bool",
          "name": "",
          "type": "bool"
        }
      ],
      "stateMutability": "view",
      "type": "function"
    },
    {
      "inputs": [
        {
          "internalType": "uint256",
          "name": "tokenId",
          "type": "uint256"
        }
      ],
      "name": "tokenURI",
      "outputs": [
        {
          "internalType": "string",
          "name": "",
          "type": "string"
        }
      ],
      "stateMutability": "view",
      "type": "function"
    },
    {
      "inputs": [],
      "name": "totalOccasions",
      "outputs": [
        {
          "internalType": "uint256",
          "name": "",
          "type": "uint256"
        }
      ],
      "stateMutability": "view",
      "type": "function"
    },
    {
      "inputs": [],
      "name": "totalSupply",
      "outputs": [
        {
          "internalType": "uint256",
          "name": "",
          "type": "uint256"
        }
      ],
      "stateMutability": "view",
      "type": "function"
    },
    {
      "inputs": [
        {
          "internalType": "address",
          "name": "from",
          "type": "address"
        },
        {
          "internalType": "address",
          "name": "to",
          "type": "address"
        },
        {
          "internalType": "uint256",
          "name": "tokenId",
          "type": "uint256"
        }
      ],
      "name": "transferFrom",
      "outputs": [],
      "stateMutability": "nonpayable",
      "type": "function"
    },
    {
      "inputs": [
        {
          "internalType": "address",
          "name": "newOwner",
          "type": "address"
        }
      ],
      "name": "transferOwnership",
      "outputs": [],
      "stateMutability": "nonpayable",
      "type": "function"
    }
  ],
  "bytecode": "0x60806040523480156200001157600080fd5b50336040518060400160405280600581526020017f546f6b656e0000000000000000000000000000000000000000000000000000008152506040518060400160405280600681526020017f5469636b65740000000000000000000000000000000000000000000000000000815250816000908162000090919062000472565b508060019081620000a2919062000472565b505050600073ffffffffffffffffffffffffffffffffffffffff168173ffffffffffffffffffffffffffffffffffffffff16036200011a5760006040517f1e4fbdf70000000000000000000000000000000000000000000000000000000081526004016200011191906200059e565b60405180910390fd5b6200012b816200013260201b60201c565b50620005bb565b6000600660009054906101000a900473ffffffffffffffffffffffffffffffffffffffff16905081600660006101000a81548173ffffffffffffffffffffffffffffffffffffffff021916908373ffffffffffffffffffffffffffffffffffffffff1602179055508173ffffffffffffffffffffffffffffffffffffffff168173ffffffffffffffffffffffffffffffffffffffff167f8be0079c531659141344cd1fd0a4f28419497f9722a3daafe3b4186f6b6457e060405160405180910390a35050565b600081519050919050565b7f4e487b7100000000000000000000000000000000000000000000000000000000600052604160045260246000fd5b7f4e487b7100000000000000000000000000000000000000000000000000000000600052602260045260246000fd5b600060028204905060018216806200027a57607f821691505b60208210810362000290576200028f62000232565b5b50919050565b60008190508160005260206000209050919050565b60006020601f8301049050919050565b600082821b905092915050565b600060088302620002fa7fffffffffffffffffffffffffffffffffffffffffffffffffffffffffffffffff82620002bb565b620003068683620002bb565b95508019841693508086168417925050509392505050565b6000819050919050565b6000819050919050565b6000620003536200034d62000347846200031e565b62000328565b6200031e565b9050919050565b6000819050919050565b6200036f8362000332565b620003876200037e826200035a565b848454620002c8565b825550505050565b600090565b6200039e6200038f565b620003ab81848462000364565b505050565b5b81811015620003d357620003c760008262000394565b600181019050620003b1565b5050565b601f8211156200042257620003ec8162000296565b620003f784620002ab565b8101602085101562000407578190505b6200041f6200041685620002ab565b830182620003b0565b50505b505050565b600082821c905092915050565b6000620004476000198460080262000427565b1980831691505092915050565b600062000462838362000434565b9150826002028217905092915050565b6200047d82620001f8565b67ffffffffffffffff81111562000499576200049862000203565b5b620004a5825462000261565b620004b2828285620003d7565b600060209050601f831160018114620004ea5760008415620004d5578287015190505b620004e1858262000454565b86555062000551565b601f198416620004fa8662000296565b60005b828110156200052457848901518255600182019150602085019450602081019050620004fd565b8683101562000544578489015162000540601f89168262000434565b8355505b6001600288020188555050505b505050505050565b600073ffffffffffffffffffffffffffffffffffffffff82169050919050565b6000620005868262000559565b9050919050565b620005988162000579565b82525050565b6000602082019050620005b560008301846200058d565b92915050565b614a4c80620005cb6000396000f3fe6080604052600436106101ee5760003560e01c8063715018a61161010d578063a22cb465116100a0578063b88d4fde1161006f578063b88d4fde14610754578063c233e22b1461077d578063c87b56dd146107ba578063e985e9c5146107f7578063f2fde38b14610834576101ee565b8063a22cb4651461069c578063adca6f89146106c5578063af296da1146106ee578063afb5604e1461072b576101ee565b806395d89b41116100dc57806395d89b41146105ce5780639cb04aef146105f95780639e6e8a8914610636578063a0415bb41461065f576101ee565b8063715018a61461052457806374bc86561461053b5780638da5cb5b14610578578063953865c1146105a3576101ee565b806323b872dd1161018557806361a5672d1161015457806361a5672d1461043b5780636352211e146104815780636b787f09146104be57806370a08231146104e7576101ee565b806323b872dd1461038357806336cf43b8146103ac57806342842e0e146103d55780634e7497fc146103fe576101ee565b8063095ea7b3116101c1578063095ea7b3146102d65780630ef7ec74146102ff57806318160ddd1461033c5780631b2ef1ca14610367576101ee565b806301ffc9a7146101f35780630484a22f1461023057806306fdde031461026e578063081812fc14610299575b600080fd5b3480156101ff57600080fd5b5061021a60048036038101906102159190613539565b61085d565b6040516102279190613581565b60405180910390f35b34801561023c57600080fd5b50610257600480360381019061025291906135fa565b61093f565b6040516102659291906136ef565b60405180910390f35b34801561027a57600080fd5b50610283610c72565b60405161029091906137b6565b60405180910390f35b3480156102a557600080fd5b506102c060048036038101906102bb9190613804565b610d04565b6040516102cd9190613840565b60405180910390f35b3480156102e257600080fd5b506102fd60048036038101906102f8919061385b565b610d20565b005b34801561030b57600080fd5b5061032660048036038101906103219190613804565b610d36565b604051610333919061389b565b60405180910390f35b34801561034857600080fd5b50610351610da1565b60405161035e91906138cc565b60405180910390f35b610381600480360381019061037c91906138e7565b610da7565b005b34801561038f57600080fd5b506103aa60048036038101906103a59190613927565b6110f7565b005b3480156103b857600080fd5b506103d360048036038101906103ce91906138e7565b6111f9565b005b3480156103e157600080fd5b506103fc60048036038101906103f79190613927565b611322565b005b34801561040a57600080fd5b50610425600480360381019061042091906138e7565b611342565b60405161043291906138cc565b60405180910390f35b34801561044757600080fd5b50610462600480360381019061045d9190613804565b611373565b6040516104789a9998979695949392919061397a565b60405180910390f35b34801561048d57600080fd5b506104a860048036038101906104a39190613804565b6116f7565b6040516104b59190613840565b60405180910390f35b3480156104ca57600080fd5b506104e560048036038101906104e091906138e7565b611709565b005b3480156104f357600080fd5b5061050e600480360381019061050991906135fa565b61196c565b60405161051b91906138cc565b60405180910390f35b34801561053057600080fd5b50610539611a26565b005b34801561054757600080fd5b50610562600480360381019061055d9190613804565b611a3a565b60405161056f9190613b87565b60405180910390f35b34801561058457600080fd5b5061058d611dfc565b60405161059a9190613840565b60405180910390f35b3480156105af57600080fd5b506105b8611e26565b6040516105c591906138cc565b60405180910390f35b3480156105da57600080fd5b506105e3611e2c565b6040516105f091906137b6565b60405180910390f35b34801561060557600080fd5b50610620600480360381019061061b9190613ba9565b611ebe565b60405161062d9190613581565b60405180910390f35b34801561064257600080fd5b5061065d60048036038101906106589190613be9565b611eed565b005b34801561066b57600080fd5b50610686600480360381019061068191906138e7565b61201d565b6040516106939190613581565b60405180910390f35b3480156106a857600080fd5b506106c360048036038101906106be9190613c68565b61204c565b005b3480156106d157600080fd5b506106ec60048036038101906106e79190613ddd565b612062565b005b3480156106fa57600080fd5b50610715600480360381019061071091906138e7565b6120e4565b6040516107229190613840565b60405180910390f35b34801561073757600080fd5b50610752600480360381019061074d9190613e39565b612126565b005b34801561076057600080fd5b5061077b60048036038101906107769190614008565b61226c565b005b34801561078957600080fd5b506107a4600480360381019061079f91906138e7565b612291565b6040516107b19190613581565b60405180910390f35b3480156107c657600080fd5b506107e160048036038101906107dc9190613804565b6122c0565b6040516107ee91906137b6565b60405180910390f35b34801561080357600080fd5b5061081e6004803603810190610819919061408b565b612329565b60405161082b9190613581565b60405180910390f35b34801561084057600080fd5b5061085b600480360381019061085691906135fa565b6123bd565b005b60007f80ac58cd000000000000000000000000000000000000000000000000000000007bffffffffffffffffffffffffffffffffffffffffffffffffffffffff1916827bffffffffffffffffffffffffffffffffffffffffffffffffffffffff1916148061092857507f5b5e139f000000000000000000000000000000000000000000000000000000007bffffffffffffffffffffffffffffffffffffffffffffffffffffffff1916827bffffffffffffffffffffffffffffffffffffffffffffffffffffffff1916145b80610938575061093782612443565b5b9050919050565b606080600060085467ffffffffffffffff8111156109605761095f613cb2565b5b60405190808252806020026020018201604052801561098e5781602001602082028036833780820191505090505b509050600060085467ffffffffffffffff8111156109af576109ae613cb2565b5b6040519080825280602002602001820160405280156109dd5781602001602082028036833780820191505090505b509050600080600190505b6007548111610b345760005b600c600083815260200190815260200160002080549050811015610b20576000600c60008481526020019081526020016000208281548110610a3957610a386140cb565b5b906000526020600020015490508873ffffffffffffffffffffffffffffffffffffffff16600a6000858152602001908152602001600020600083815260200190815260200160002060009054906101000a900473ffffffffffffffffffffffffffffffffffffffff1673ffffffffffffffffffffffffffffffffffffffff1603610b0c5782868581518110610ad157610ad06140cb565b5b60200260200101818152505080858581518110610af157610af06140cb565b5b6020026020010181815250508380610b0890614129565b9450505b508080610b1890614129565b9150506109f4565b508080610b2c90614129565b9150506109e8565b5060008167ffffffffffffffff811115610b5157610b50613cb2565b5b604051908082528060200260200182016040528015610b7f5781602001602082028036833780820191505090505b50905060008267ffffffffffffffff811115610b9e57610b9d613cb2565b5b604051908082528060200260200182016040528015610bcc5781602001602082028036833780820191505090505b50905060005b83811015610c6157858181518110610bed57610bec6140cb565b5b6020026020010151838281518110610c0857610c076140cb565b5b602002602001018181525050848181518110610c2757610c266140cb565b5b6020026020010151828281518110610c4257610c416140cb565b5b6020026020010181815250508080610c5990614129565b915050610bd2565b508181965096505050505050915091565b606060008054610c81906141a0565b80601f0160208091040260200160405190810160405280929190818152602001828054610cad906141a0565b8015610cfa5780601f10610ccf57610100808354040283529160200191610cfa565b820191906000526020600020905b815481529060010190602001808311610cdd57829003601f168201915b5050505050905090565b6000610d0f826124ad565b50610d1982612535565b9050919050565b610d328282610d2d612572565b61257a565b5050565b6060600c6000838152602001908152602001600020805480602002602001604051908101604052809291908181526020018280548015610d9557602002820191906000526020600020905b815481526020019060010190808311610d81575b50505050509050919050565b60085481565b60008214158015610dba57506007548211155b610df9576040517f08c379a0000000000000000000000000000000000000000000000000000000008152600401610df09061421d565b60405180910390fd5b6009600083815260200190815260200160002060020154341015610e52576040517f08c379a0000000000000000000000000000000000000000000000000000000008152600401610e4990614289565b60405180910390fd5b600073ffffffffffffffffffffffffffffffffffffffff16600a6000848152602001908152602001600020600083815260200190815260200160002060009054906101000a900473ffffffffffffffffffffffffffffffffffffffff1673ffffffffffffffffffffffffffffffffffffffff1614610f05576040517f08c379a0000000000000000000000000000000000000000000000000000000008152600401610efc906142f5565b60405180910390fd5b6009600083815260200190815260200160002060040154811115610f5e576040517f08c379a0000000000000000000000000000000000000000000000000000000008152600401610f5590614361565b60405180910390fd5b60086000815480929190610f7190614129565b9190505550600960008381526020019081526020016000206003016000815480929190610f9d90614381565b91905055506001600b600084815260200190815260200160002060003373ffffffffffffffffffffffffffffffffffffffff1673ffffffffffffffffffffffffffffffffffffffff16815260200190815260200160002060006101000a81548160ff02191690831515021790555033600a6000848152602001908152602001600020600083815260200190815260200160002060006101000a81548173ffffffffffffffffffffffffffffffffffffffff021916908373ffffffffffffffffffffffffffffffffffffffff160217905550600c60008381526020019081526020016000208190806001815401808255809150506001900390600052602060002001600090919091909150556001600e60008481526020019081526020016000206000600854815260200190815260200160002060006101000a81548160ff0219169083151502179055506110f33360085461258c565b5050565b600073ffffffffffffffffffffffffffffffffffffffff168273ffffffffffffffffffffffffffffffffffffffff16036111695760006040517f64a0ae920000000000000000000000000000000000000000000000000000000081526004016111609190613840565b60405180910390fd5b600061117d8383611178612572565b6125aa565b90508373ffffffffffffffffffffffffffffffffffffffff168173ffffffffffffffffffffffffffffffffffffffff16146111f3578382826040517f64283d7b0000000000000000000000000000000000000000000000000000000081526004016111ea939291906143aa565b60405180910390fd5b50505050565b3373ffffffffffffffffffffffffffffffffffffffff16611219826116f7565b73ffffffffffffffffffffffffffffffffffffffff161461126f576040517f08c379a00000000000000000000000000000000000000000000000000000000081526004016112669061442d565b60405180910390fd5b600d6000838152602001908152602001600020600082815260200190815260200160002060009054906101000a900460ff16156112e1576040517f08c379a00000000000000000000000000000000000000000000000000000000081526004016112d890614499565b60405180910390fd5b6001600e6000848152602001908152602001600020600083815260200190815260200160002060006101000a81548160ff0219169083151502179055505050565b61133d8383836040518060200160405280600081525061226c565b505050565b600c602052816000526040600020818154811061135e57600080fd5b90600052602060002001600091509150505481565b600960205280600052604060002060009150905080600001549080600101805461139c906141a0565b80601f01602080910402602001604051908101604052809291908181526020018280546113c8906141a0565b80156114155780601f106113ea57610100808354040283529160200191611415565b820191906000526020600020905b8154815290600101906020018083116113f857829003601f168201915b50505050509080600201549080600301549080600401549080600501805461143c906141a0565b80601f0160208091040260200160405190810160405280929190818152602001828054611468906141a0565b80156114b55780601f1061148a576101008083540402835291602001916114b5565b820191906000526020600020905b81548152906001019060200180831161149857829003601f168201915b5050505050908060060180546114ca906141a0565b80601f01602080910402602001604051908101604052809291908181526020018280546114f6906141a0565b80156115435780601f1061151857610100808354040283529160200191611543565b820191906000526020600020905b81548152906001019060200180831161152657829003601f168201915b505050505090806007018054611558906141a0565b80601f0160208091040260200160405190810160405280929190818152602001828054611584906141a0565b80156115d15780601f106115a6576101008083540402835291602001916115d1565b820191906000526020600020905b8154815290600101906020018083116115b457829003601f168201915b5050505050908060080180546115e6906141a0565b80601f0160208091040260200160405190810160405280929190818152602001828054611612906141a0565b801561165f5780601f106116345761010080835404028352916020019161165f565b820191906000526020600020905b81548152906001019060200180831161164257829003601f168201915b505050505090806009018054611674906141a0565b80601f01602080910402602001604051908101604052809291908181526020018280546116a0906141a0565b80156116ed5780601f106116c2576101008083540402835291602001916116ed565b820191906000526020600020905b8154815290600101906020018083116116d057829003601f168201915b505050505090508a565b6000611702826124ad565b9050919050565b6117116127c4565b6000821415801561172457506007548211155b611763576040517f08c379a000000000000000000000000000000000000000000000000000000000815260040161175a90614505565b60405180910390fd5b600073ffffffffffffffffffffffffffffffffffffffff16600a6000848152602001908152602001600020600083815260200190815260200160002060009054906101000a900473ffffffffffffffffffffffffffffffffffffffff1673ffffffffffffffffffffffffffffffffffffffff1603611816576040517f08c379a000000000000000000000000000000000000000000000000000000000815260040161180d90614571565b60405180910390fd5b6000600a6000848152602001908152602001600020600083815260200190815260200160002060009054906101000a900473ffffffffffffffffffffffffffffffffffffffff16905060008173ffffffffffffffffffffffffffffffffffffffff169050600d6000858152602001908152602001600020600082815260200190815260200160002060009054906101000a900460ff16156118ec576040517f08c379a00000000000000000000000000000000000000000000000000000000081526004016118e390614499565b60405180910390fd5b6001600d6000868152602001908152602001600020600083815260200190815260200160002060006101000a81548160ff0219169083151502179055506000600e6000868152602001908152602001600020600083815260200190815260200160002060006101000a81548160ff02191690831515021790555050505050565b60008073ffffffffffffffffffffffffffffffffffffffff168273ffffffffffffffffffffffffffffffffffffffff16036119df5760006040517f89c62b640000000000000000000000000000000000000000000000000000000081526004016119d69190613840565b60405180910390fd5b600360008373ffffffffffffffffffffffffffffffffffffffff1673ffffffffffffffffffffffffffffffffffffffff168152602001908152602001600020549050919050565b611a2e6127c4565b611a38600061284b565b565b611a4261347a565b600960008381526020019081526020016000206040518061014001604052908160008201548152602001600182018054611a7b906141a0565b80601f0160208091040260200160405190810160405280929190818152602001828054611aa7906141a0565b8015611af45780601f10611ac957610100808354040283529160200191611af4565b820191906000526020600020905b815481529060010190602001808311611ad757829003601f168201915b50505050508152602001600282015481526020016003820154815260200160048201548152602001600582018054611b2b906141a0565b80601f0160208091040260200160405190810160405280929190818152602001828054611b57906141a0565b8015611ba45780601f10611b7957610100808354040283529160200191611ba4565b820191906000526020600020905b815481529060010190602001808311611b8757829003601f168201915b50505050508152602001600682018054611bbd906141a0565b80601f0160208091040260200160405190810160405280929190818152602001828054611be9906141a0565b8015611c365780601f10611c0b57610100808354040283529160200191611c36565b820191906000526020600020905b815481529060010190602001808311611c1957829003601f168201915b50505050508152602001600782018054611c4f906141a0565b80601f0160208091040260200160405190810160405280929190818152602001828054611c7b906141a0565b8015611cc85780601f10611c9d57610100808354040283529160200191611cc8565b820191906000526020600020905b815481529060010190602001808311611cab57829003601f168201915b50505050508152602001600882018054611ce1906141a0565b80601f0160208091040260200160405190810160405280929190818152602001828054611d0d906141a0565b8015611d5a5780601f10611d2f57610100808354040283529160200191611d5a565b820191906000526020600020905b815481529060010190602001808311611d3d57829003601f168201915b50505050508152602001600982018054611d73906141a0565b80601f0160208091040260200160405190810160405280929190818152602001828054611d9f906141a0565b8015611dec5780601f10611dc157610100808354040283529160200191611dec565b820191906000526020600020905b815481529060010190602001808311611dcf57829003601f168201915b5050505050815250509050919050565b6000600660009054906101000a900473ffffffffffffffffffffffffffffffffffffffff16905090565b60075481565b606060018054611e3b906141a0565b80601f0160208091040260200160405190810160405280929190818152602001828054611e67906141a0565b8015611eb45780601f10611e8957610100808354040283529160200191611eb4565b820191906000526020600020905b815481529060010190602001808311611e9757829003601f168201915b5050505050905090565b600b6020528160005260406000206020528060005260406000206000915091509054906101000a900460ff1681565b600e6000838152602001908152602001600020600082815260200190815260200160002060009054906101000a900460ff16611f5e576040517f08c379a0000000000000000000000000000000000000000000000000000000008152600401611f55906145dd565b60405180910390fd5b600d6000838152602001908152602001600020600082815260200190815260200160002060009054906101000a900460ff1615611fd0576040517f08c379a0000000000000000000000000000000000000000000000000000000008152600401611fc790614499565b60405180910390fd5b611fdb338483612911565b6000600e6000848152602001908152602001600020600083815260200190815260200160002060006101000a81548160ff021916908315150217905550505050565b600d6020528160005260406000206020528060005260406000206000915091509054906101000a900460ff1681565b61205e612057612572565b8383612a7e565b5050565b61206a6127c4565b6000821415801561207d57506007548211155b6120bc576040517f08c379a00000000000000000000000000000000000000000000000000000000081526004016120b39061421d565b60405180910390fd5b806009600084815260200190815260200160002060090190816120df91906147a9565b505050565b600a6020528160005260406000206020528060005260406000206000915091509054906101000a900473ffffffffffffffffffffffffffffffffffffffff1681565b61212e6127c4565b6007600081548092919061214190614129565b91905055506040518061014001604052806007548152602001888152602001878152602001868152602001868152602001858152602001848152602001838152602001828152602001604051806020016040528060008152508152506009600060075481526020019081526020016000206000820151816000015560208201518160010190816121d191906147a9565b5060408201518160020155606082015181600301556080820151816004015560a082015181600501908161220591906147a9565b5060c082015181600601908161221b91906147a9565b5060e082015181600701908161223191906147a9565b5061010082015181600801908161224891906147a9565b5061012082015181600901908161225f91906147a9565b5090505050505050505050565b6122778484846110f7565b61228b612282612572565b85858585612bed565b50505050565b600e6020528160005260406000206020528060005260406000206000915091509054906101000a900460ff1681565b60606122cb826124ad565b5060006122d6612d9e565b905060008151116122f65760405180602001604052806000815250612321565b8061230084612db5565b6040516020016123119291906148b7565b6040516020818303038152906040525b915050919050565b6000600560008473ffffffffffffffffffffffffffffffffffffffff1673ffffffffffffffffffffffffffffffffffffffff16815260200190815260200160002060008373ffffffffffffffffffffffffffffffffffffffff1673ffffffffffffffffffffffffffffffffffffffff16815260200190815260200160002060009054906101000a900460ff16905092915050565b6123c56127c4565b600073ffffffffffffffffffffffffffffffffffffffff168173ffffffffffffffffffffffffffffffffffffffff16036124375760006040517f1e4fbdf700000000000000000000000000000000000000000000000000000000815260040161242e9190613840565b60405180910390fd5b6124408161284b565b50565b60007f01ffc9a7000000000000000000000000000000000000000000000000000000007bffffffffffffffffffffffffffffffffffffffffffffffffffffffff1916827bffffffffffffffffffffffffffffffffffffffffffffffffffffffff1916149050919050565b6000806124b983612e83565b9050600073ffffffffffffffffffffffffffffffffffffffff168173ffffffffffffffffffffffffffffffffffffffff160361252c57826040517f7e27328900000000000000000000000000000000000000000000000000000000815260040161252391906138cc565b60405180910390fd5b80915050919050565b60006004600083815260200190815260200160002060009054906101000a900473ffffffffffffffffffffffffffffffffffffffff169050919050565b600033905090565b6125878383836001612ec0565b505050565b6125a6828260405180602001604052806000815250613085565b5050565b6000806125b684612e83565b9050600073ffffffffffffffffffffffffffffffffffffffff168373ffffffffffffffffffffffffffffffffffffffff16146125f8576125f78184866130a9565b5b600073ffffffffffffffffffffffffffffffffffffffff168173ffffffffffffffffffffffffffffffffffffffff16146126895761263a600085600080612ec0565b6001600360008373ffffffffffffffffffffffffffffffffffffffff1673ffffffffffffffffffffffffffffffffffffffff168152602001908152602001600020600082825403925050819055505b600073ffffffffffffffffffffffffffffffffffffffff168573ffffffffffffffffffffffffffffffffffffffff161461270c576001600360008773ffffffffffffffffffffffffffffffffffffffff1673ffffffffffffffffffffffffffffffffffffffff168152602001908152602001600020600082825401925050819055505b846002600086815260200190815260200160002060006101000a81548173ffffffffffffffffffffffffffffffffffffffff021916908373ffffffffffffffffffffffffffffffffffffffff160217905550838573ffffffffffffffffffffffffffffffffffffffff168273ffffffffffffffffffffffffffffffffffffffff167fddf252ad1be2c89b69c2b068fc378daa952ba7f163c4a11628f55a4df523b3ef60405160405180910390a4809150509392505050565b6127cc612572565b73ffffffffffffffffffffffffffffffffffffffff166127ea611dfc565b73ffffffffffffffffffffffffffffffffffffffff16146128495761280d612572565b6040517f118cdaa70000000000000000000000000000000000000000000000000000000081526004016128409190613840565b60405180910390fd5b565b6000600660009054906101000a900473ffffffffffffffffffffffffffffffffffffffff16905081600660006101000a81548173ffffffffffffffffffffffffffffffffffffffff021916908373ffffffffffffffffffffffffffffffffffffffff1602179055508173ffffffffffffffffffffffffffffffffffffffff168173ffffffffffffffffffffffffffffffffffffffff167f8be0079c531659141344cd1fd0a4f28419497f9722a3daafe3b4186f6b6457e060405160405180910390a35050565b600073ffffffffffffffffffffffffffffffffffffffff168273ffffffffffffffffffffffffffffffffffffffff16036129835760006040517f64a0ae9200000000000000000000000000000000000000000000000000000000815260040161297a9190613840565b60405180910390fd5b6000612991838360006125aa565b9050600073ffffffffffffffffffffffffffffffffffffffff168173ffffffffffffffffffffffffffffffffffffffff1603612a0457816040517f7e2732890000000000000000000000000000000000000000000000000000000081526004016129fb91906138cc565b60405180910390fd5b8373ffffffffffffffffffffffffffffffffffffffff168173ffffffffffffffffffffffffffffffffffffffff1614612a78578382826040517f64283d7b000000000000000000000000000000000000000000000000000000008152600401612a6f939291906143aa565b60405180910390fd5b50505050565b600073ffffffffffffffffffffffffffffffffffffffff168273ffffffffffffffffffffffffffffffffffffffff1603612aef57816040517f5b08ba18000000000000000000000000000000000000000000000000000000008152600401612ae69190613840565b60405180910390fd5b80600560008573ffffffffffffffffffffffffffffffffffffffff1673ffffffffffffffffffffffffffffffffffffffff16815260200190815260200160002060008473ffffffffffffffffffffffffffffffffffffffff1673ffffffffffffffffffffffffffffffffffffffff16815260200190815260200160002060006101000a81548160ff0219169083151502179055508173ffffffffffffffffffffffffffffffffffffffff168373ffffffffffffffffffffffffffffffffffffffff167f17307eab39ab6107e8899845ad3d59bd9653f200f220920489ca2b5937696c3183604051612be09190613581565b60405180910390a3505050565b60008373ffffffffffffffffffffffffffffffffffffffff163b1115612d97578273ffffffffffffffffffffffffffffffffffffffff1663150b7a02868685856040518563ffffffff1660e01b8152600401612c4c9493929190614930565b6020604051808303816000875af1925050508015612c8857506040513d601f19601f82011682018060405250810190612c859190614991565b60015b612d0c573d8060008114612cb8576040519150601f19603f3d011682016040523d82523d6000602084013e612cbd565b606091505b506000815103612d0457836040517f64a0ae92000000000000000000000000000000000000000000000000000000008152600401612cfb9190613840565b60405180910390fd5b805181602001fd5b63150b7a0260e01b7bffffffffffffffffffffffffffffffffffffffffffffffffffffffff1916817bffffffffffffffffffffffffffffffffffffffffffffffffffffffff191614612d9557836040517f64a0ae92000000000000000000000000000000000000000000000000000000008152600401612d8c9190613840565b60405180910390fd5b505b5050505050565b606060405180602001604052806000815250905090565b606060006001612dc48461316d565b01905060008167ffffffffffffffff811115612de357612de2613cb2565b5b6040519080825280601f01601f191660200182016040528015612e155781602001600182028036833780820191505090505b509050600082602001820190505b600115612e78578080600190039150507f3031323334353637383961626364656600000000000000000000000000000000600a86061a8153600a8581612e6c57612e6b6149be565b5b04945060008503612e23575b819350505050919050565b60006002600083815260200190815260200160002060009054906101000a900473ffffffffffffffffffffffffffffffffffffffff169050919050565b8080612ef95750600073ffffffffffffffffffffffffffffffffffffffff168273ffffffffffffffffffffffffffffffffffffffff1614155b1561302d576000612f09846124ad565b9050600073ffffffffffffffffffffffffffffffffffffffff168373ffffffffffffffffffffffffffffffffffffffff1614158015612f7457508273ffffffffffffffffffffffffffffffffffffffff168173ffffffffffffffffffffffffffffffffffffffff1614155b8015612f875750612f858184612329565b155b15612fc957826040517fa9fbf51f000000000000000000000000000000000000000000000000000000008152600401612fc09190613840565b60405180910390fd5b811561302b57838573ffffffffffffffffffffffffffffffffffffffff168273ffffffffffffffffffffffffffffffffffffffff167f8c5be1e5ebec7d5bd14f71427d1e84f3dd0314c0f7b2291e5b200ac8c7c3b92560405160405180910390a45b505b836004600085815260200190815260200160002060006101000a81548173ffffffffffffffffffffffffffffffffffffffff021916908373ffffffffffffffffffffffffffffffffffffffff16021790555050505050565b61308f83836132c0565b6130a461309a612572565b6000858585612bed565b505050565b6130b48383836133b9565b61316857600073ffffffffffffffffffffffffffffffffffffffff168373ffffffffffffffffffffffffffffffffffffffff160361312957806040517f7e27328900000000000000000000000000000000000000000000000000000000815260040161312091906138cc565b60405180910390fd5b81816040517f177e802f00000000000000000000000000000000000000000000000000000000815260040161315f9291906149ed565b60405180910390fd5b505050565b600080600090507a184f03e93ff9f4daa797ed6e38ed64bf6a1f01000000000000000083106131cb577a184f03e93ff9f4daa797ed6e38ed64bf6a1f01000000000000000083816131c1576131c06149be565b5b0492506040810190505b6d04ee2d6d415b85acef81000000008310613208576d04ee2d6d415b85acef810000000083816131fe576131fd6149be565b5b0492506020810190505b662386f26fc10000831061323757662386f26fc10000838161322d5761322c6149be565b5b0492506010810190505b6305f5e1008310613260576305f5e1008381613256576132556149be565b5b0492506008810190505b612710831061328557612710838161327b5761327a6149be565b5b0492506004810190505b606483106132a8576064838161329e5761329d6149be565b5b0492506002810190505b600a83106132b7576001810190505b80915050919050565b600073ffffffffffffffffffffffffffffffffffffffff168273ffffffffffffffffffffffffffffffffffffffff16036133325760006040517f64a0ae920000000000000000000000000000000000000000000000000000000081526004016133299190613840565b60405180910390fd5b6000613340838360006125aa565b9050600073ffffffffffffffffffffffffffffffffffffffff168173ffffffffffffffffffffffffffffffffffffffff16146133b45760006040517f73c6ac6e0000000000000000000000000000000000000000000000000000000081526004016133ab9190613840565b60405180910390fd5b505050565b60008073ffffffffffffffffffffffffffffffffffffffff168373ffffffffffffffffffffffffffffffffffffffff161415801561347157508273ffffffffffffffffffffffffffffffffffffffff168473ffffffffffffffffffffffffffffffffffffffff16148061343257506134318484612329565b5b8061347057508273ffffffffffffffffffffffffffffffffffffffff1661345883612535565b73ffffffffffffffffffffffffffffffffffffffff16145b5b90509392505050565b604051806101400160405280600081526020016060815260200160008152602001600081526020016000815260200160608152602001606081526020016060815260200160608152602001606081525090565b6000604051905090565b600080fd5b600080fd5b60007fffffffff0000000000000000000000000000000000000000000000000000000082169050919050565b613516816134e1565b811461352157600080fd5b50565b6000813590506135338161350d565b92915050565b60006020828403121561354f5761354e6134d7565b5b600061355d84828501613524565b91505092915050565b60008115159050919050565b61357b81613566565b82525050565b60006020820190506135966000830184613572565b92915050565b600073ffffffffffffffffffffffffffffffffffffffff82169050919050565b60006135c78261359c565b9050919050565b6135d7816135bc565b81146135e257600080fd5b50565b6000813590506135f4816135ce565b92915050565b6000602082840312156136105761360f6134d7565b5b600061361e848285016135e5565b91505092915050565b600081519050919050565b600082825260208201905092915050565b6000819050602082019050919050565b6000819050919050565b61366681613653565b82525050565b6000613678838361365d565b60208301905092915050565b6000602082019050919050565b600061369c82613627565b6136a68185613632565b93506136b183613643565b8060005b838110156136e25781516136c9888261366c565b97506136d483613684565b9250506001810190506136b5565b5085935050505092915050565b600060408201905081810360008301526137098185613691565b9050818103602083015261371d8184613691565b90509392505050565b600081519050919050565b600082825260208201905092915050565b60005b83811015613760578082015181840152602081019050613745565b60008484015250505050565b6000601f19601f8301169050919050565b600061378882613726565b6137928185613731565b93506137a2818560208601613742565b6137ab8161376c565b840191505092915050565b600060208201905081810360008301526137d0818461377d565b905092915050565b6137e181613653565b81146137ec57600080fd5b50565b6000813590506137fe816137d8565b92915050565b60006020828403121561381a576138196134d7565b5b6000613828848285016137ef565b91505092915050565b61383a816135bc565b82525050565b60006020820190506138556000830184613831565b92915050565b60008060408385031215613872576138716134d7565b5b6000613880858286016135e5565b9250506020613891858286016137ef565b9150509250929050565b600060208201905081810360008301526138b58184613691565b905092915050565b6138c681613653565b82525050565b60006020820190506138e160008301846138bd565b92915050565b600080604083850312156138fe576138fd6134d7565b5b600061390c858286016137ef565b925050602061391d858286016137ef565b9150509250929050565b6000806000606084860312156139405761393f6134d7565b5b600061394e868287016135e5565b935050602061395f868287016135e5565b9250506040613970868287016137ef565b9150509250925092565b600061014082019050613990600083018d6138bd565b81810360208301526139a2818c61377d565b90506139b1604083018b6138bd565b6139be606083018a6138bd565b6139cb60808301896138bd565b81810360a08301526139dd818861377d565b905081810360c08301526139f1818761377d565b905081810360e0830152613a05818661377d565b9050818103610100830152613a1a818561377d565b9050818103610120830152613a2f818461377d565b90509b9a5050505050505050505050565b600082825260208201905092915050565b6000613a5c82613726565b613a668185613a40565b9350613a76818560208601613742565b613a7f8161376c565b840191505092915050565b600061014083016000830151613aa3600086018261365d565b5060208301518482036020860152613abb8282613a51565b9150506040830151613ad0604086018261365d565b506060830151613ae3606086018261365d565b506080830151613af6608086018261365d565b5060a083015184820360a0860152613b0e8282613a51565b91505060c083015184820360c0860152613b288282613a51565b91505060e083015184820360e0860152613b428282613a51565b915050610100830151848203610100860152613b5e8282613a51565b915050610120830151848203610120860152613b7a8282613a51565b9150508091505092915050565b60006020820190508181036000830152613ba18184613a8a565b905092915050565b60008060408385031215613bc057613bbf6134d7565b5b6000613bce858286016137ef565b9250506020613bdf858286016135e5565b9150509250929050565b600080600060608486031215613c0257613c016134d7565b5b6000613c10868287016135e5565b9350506020613c21868287016137ef565b9250506040613c32868287016137ef565b9150509250925092565b613c4581613566565b8114613c5057600080fd5b50565b600081359050613c6281613c3c565b92915050565b60008060408385031215613c7f57613c7e6134d7565b5b6000613c8d858286016135e5565b9250506020613c9e85828601613c53565b9150509250929050565b600080fd5b600080fd5b7f4e487b7100000000000000000000000000000000000000000000000000000000600052604160045260246000fd5b613cea8261376c565b810181811067ffffffffffffffff82111715613d0957613d08613cb2565b5b80604052505050565b6000613d1c6134cd565b9050613d288282613ce1565b919050565b600067ffffffffffffffff821115613d4857613d47613cb2565b5b613d518261376c565b9050602081019050919050565b82818337600083830152505050565b6000613d80613d7b84613d2d565b613d12565b905082815260208101848484011115613d9c57613d9b613cad565b5b613da7848285613d5e565b509392505050565b600082601f830112613dc457613dc3613ca8565b5b8135613dd4848260208601613d6d565b91505092915050565b60008060408385031215613df457613df36134d7565b5b6000613e02858286016137ef565b925050602083013567ffffffffffffffff811115613e2357613e226134dc565b5b613e2f85828601613daf565b9150509250929050565b600080600080600080600060e0888a031215613e5857613e576134d7565b5b600088013567ffffffffffffffff811115613e7657613e756134dc565b5b613e828a828b01613daf565b9750506020613e938a828b016137ef565b9650506040613ea48a828b016137ef565b955050606088013567ffffffffffffffff811115613ec557613ec46134dc565b5b613ed18a828b01613daf565b945050608088013567ffffffffffffffff811115613ef257613ef16134dc565b5b613efe8a828b01613daf565b93505060a088013567ffffffffffffffff811115613f1f57613f1e6134dc565b5b613f2b8a828b01613daf565b92505060c088013567ffffffffffffffff811115613f4c57613f4b6134dc565b5b613f588a828b01613daf565b91505092959891949750929550565b600067ffffffffffffffff821115613f8257613f81613cb2565b5b613f8b8261376c565b9050602081019050919050565b6000613fab613fa684613f67565b613d12565b905082815260208101848484011115613fc757613fc6613cad565b5b613fd2848285613d5e565b509392505050565b600082601f830112613fef57613fee613ca8565b5b8135613fff848260208601613f98565b91505092915050565b60008060008060808587031215614022576140216134d7565b5b6000614030878288016135e5565b9450506020614041878288016135e5565b9350506040614052878288016137ef565b925050606085013567ffffffffffffffff811115614073576140726134dc565b5b61407f87828801613fda565b91505092959194509250565b600080604083850312156140a2576140a16134d7565b5b60006140b0858286016135e5565b92505060206140c1858286016135e5565b9150509250929050565b7f4e487b7100000000000000000000000000000000000000000000000000000000600052603260045260246000fd5b7f4e487b7100000000000000000000000000000000000000000000000000000000600052601160045260246000fd5b600061413482613653565b91507fffffffffffffffffffffffffffffffffffffffffffffffffffffffffffffffff8203614166576141656140fa565b5b600182019050919050565b7f4e487b7100000000000000000000000000000000000000000000000000000000600052602260045260246000fd5b600060028204905060018216806141b857607f821691505b6020821081036141cb576141ca614171565b5b50919050565b7f496e76616c6964206f63636173696f6e20494400000000000000000000000000600082015250565b6000614207601383613731565b9150614212826141d1565b602082019050919050565b60006020820190508181036000830152614236816141fa565b9050919050565b7f496e73756666696369656e74204554482073656e740000000000000000000000600082015250565b6000614273601583613731565b915061427e8261423d565b602082019050919050565b600060208201905081810360008301526142a281614266565b9050919050565b7f5365617420616c72656164792074616b656e0000000000000000000000000000600082015250565b60006142df601283613731565b91506142ea826142a9565b602082019050919050565b6000602082019050818103600083015261430e816142d2565b9050919050565b7f496e76616c69642073656174206e756d62657200000000000000000000000000600082015250565b600061434b601383613731565b915061435682614315565b602082019050919050565b6000602082019050818103600083015261437a8161433e565b9050919050565b600061438c82613653565b91506000820361439f5761439e6140fa565b5b600182039050919050565b60006060820190506143bf6000830186613831565b6143cc60208301856138bd565b6143d96040830184613831565b949350505050565b7f4e6f7420746865206f776e6572206f6620746865207469636b65740000000000600082015250565b6000614417601b83613731565b9150614422826143e1565b602082019050919050565b600060208201905081810360008301526144468161440a565b9050919050565b7f5469636b657420616c7265616479207573656400000000000000000000000000600082015250565b6000614483601383613731565b915061448e8261444d565b602082019050919050565b600060208201905081810360008301526144b281614476565b9050919050565b7f496e76616c6964206576656e7420494400000000000000000000000000000000600082015250565b60006144ef601083613731565b91506144fa826144b9565b602082019050919050565b6000602082019050818103600083015261451e816144e2565b9050919050565b7f53656174206e6f74206f63637570696564000000000000000000000000000000600082015250565b600061455b601183613731565b915061456682614525565b602082019050919050565b6000602082019050818103600083015261458a8161454e565b9050919050565b7f526573616c65206e6f7420616c6c6f7765640000000000000000000000000000600082015250565b60006145c7601283613731565b91506145d282614591565b602082019050919050565b600060208201905081810360008301526145f6816145ba565b9050919050565b60008190508160005260206000209050919050565b60006020601f8301049050919050565b600082821b905092915050565b60006008830261465f7fffffffffffffffffffffffffffffffffffffffffffffffffffffffffffffffff82614622565b6146698683614622565b95508019841693508086168417925050509392505050565b6000819050919050565b60006146a66146a161469c84613653565b614681565b613653565b9050919050565b6000819050919050565b6146c08361468b565b6146d46146cc826146ad565b84845461462f565b825550505050565b600090565b6146e96146dc565b6146f48184846146b7565b505050565b5b818110156147185761470d6000826146e1565b6001810190506146fa565b5050565b601f82111561475d5761472e816145fd565b61473784614612565b81016020851015614746578190505b61475a61475285614612565b8301826146f9565b50505b505050565b600082821c905092915050565b600061478060001984600802614762565b1980831691505092915050565b6000614799838361476f565b9150826002028217905092915050565b6147b282613726565b67ffffffffffffffff8111156147cb576147ca613cb2565b5b6147d582546141a0565b6147e082828561471c565b600060209050601f8311600181146148135760008415614801578287015190505b61480b858261478d565b865550614873565b601f198416614821866145fd565b60005b8281101561484957848901518255600182019150602085019450602081019050614824565b868310156148665784890151614862601f89168261476f565b8355505b6001600288020188555050505b505050505050565b600081905092915050565b600061489182613726565b61489b818561487b565b93506148ab818560208601613742565b80840191505092915050565b60006148c38285614886565b91506148cf8284614886565b91508190509392505050565b600081519050919050565b600082825260208201905092915050565b6000614902826148db565b61490c81856148e6565b935061491c818560208601613742565b6149258161376c565b840191505092915050565b60006080820190506149456000830187613831565b6149526020830186613831565b61495f60408301856138bd565b818103606083015261497181846148f7565b905095945050505050565b60008151905061498b8161350d565b92915050565b6000602082840312156149a7576149a66134d7565b5b60006149b58482850161497c565b91505092915050565b7f4e487b7100000000000000000000000000000000000000000000000000000000600052601260045260246000fd5b6000604082019050614a026000830185613831565b614a0f60208301846138bd565b939250505056fea2646970667358221220a9335381c52f9aac99ef99640e42a3e6d705cb4d40ac885e2c0867f9e6d037cf64736f6c63430008140033",
  "linkReferences": {},
  "deployedLinkReferences": {}
}