{
  "_format": "hh-sol-artifact-1",
  "contractName": "TicketMaster",
  "sourceName": "contracts/TicketMaster.sol",
  "abi": [
    {
      "inputs": [],
      "stateMutability": "nonpayable",
      "type": "constructor"
    },
    {
      "inputs": [
        {
          "internalType": "address",
          "name": "sender",
          "type": "address"
        },
        {
          "internalType": "uint256",
          "name": "tokenId",
          "type": "uint256"
        },
        {
          "internalType": "address",
          "name": "owner",
          "type": "address"
        }
      ],
      "name": "ERC721IncorrectOwner",
      "type": "error"
    },
    {
      "inputs": [
        {
          "internalType": "address",
          "name": "operator",
          "type": "address"
        },
        {
          "internalType": "uint256",
          "name": "tokenId",
          "type": "uint256"
        }
      ],
      "name": "ERC721InsufficientApproval",
      "type": "error"
    },
    {
      "inputs": [
        {
          "internalType": "address",
          "name": "approver",
          "type": "address"
        }
      ],
      "name": "ERC721InvalidApprover",
      "type": "error"
    },
    {
      "inputs": [
        {
          "internalType": "address",
          "name": "operator",
          "type": "address"
        }
      ],
      "name": "ERC721InvalidOperator",
      "type": "error"
    },
    {
      "inputs": [
        {
          "internalType": "address",
          "name": "owner",
          "type": "address"
        }
      ],
      "name": "ERC721InvalidOwner",
      "type": "error"
    },
    {
      "inputs": [
        {
          "internalType": "address",
          "name": "receiver",
          "type": "address"
        }
      ],
      "name": "ERC721InvalidReceiver",
      "type": "error"
    },
    {
      "inputs": [
        {
          "internalType": "address",
          "name": "sender",
          "type": "address"
        }
      ],
      "name": "ERC721InvalidSender",
      "type": "error"
    },
    {
      "inputs": [
        {
          "internalType": "uint256",
          "name": "tokenId",
          "type": "uint256"
        }
      ],
      "name": "ERC721NonexistentToken",
      "type": "error"
    },
    {
      "inputs": [
        {
          "internalType": "address",
          "name": "owner",
          "type": "address"
        }
      ],
      "name": "OwnableInvalidOwner",
      "type": "error"
    },
    {
      "inputs": [
        {
          "internalType": "address",
          "name": "account",
          "type": "address"
        }
      ],
      "name": "OwnableUnauthorizedAccount",
      "type": "error"
    },
    {
      "anonymous": false,
      "inputs": [
        {
          "indexed": true,
          "internalType": "address",
          "name": "owner",
          "type": "address"
        },
        {
          "indexed": true,
          "internalType": "address",
          "name": "approved",
          "type": "address"
        },
        {
          "indexed": true,
          "internalType": "uint256",
          "name": "tokenId",
          "type": "uint256"
        }
      ],
      "name": "Approval",
      "type": "event"
    },
    {
      "anonymous": false,
      "inputs": [
        {
          "indexed": true,
          "internalType": "address",
          "name": "owner",
          "type": "address"
        },
        {
          "indexed": true,
          "internalType": "address",
          "name": "operator",
          "type": "address"
        },
        {
          "indexed": false,
          "internalType": "bool",
          "name": "approved",
          "type": "bool"
        }
      ],
      "name": "ApprovalForAll",
      "type": "event"
    },
    {
      "anonymous": false,
      "inputs": [
        {
          "indexed": true,
          "internalType": "address",
          "name": "previousOwner",
          "type": "address"
        },
        {
          "indexed": true,
          "internalType": "address",
          "name": "newOwner",
          "type": "address"
        }
      ],
      "name": "OwnershipTransferred",
      "type": "event"
    },
    {
      "anonymous": false,
      "inputs": [
        {
          "indexed": true,
          "internalType": "address",
          "name": "from",
          "type": "address"
        },
        {
          "indexed": true,
          "internalType": "address",
          "name": "to",
          "type": "address"
        },
        {
          "indexed": true,
          "internalType": "uint256",
          "name": "tokenId",
          "type": "uint256"
        }
      ],
      "name": "Transfer",
      "type": "event"
    },
    {
      "inputs": [
        {
          "internalType": "address",
          "name": "to",
          "type": "address"
        },
        {
          "internalType": "uint256",
          "name": "tokenId",
          "type": "uint256"
        }
      ],
      "name": "approve",
      "outputs": [],
      "stateMutability": "nonpayable",
      "type": "function"
    },
    {
      "inputs": [
        {
          "internalType": "address",
          "name": "owner",
          "type": "address"
        }
      ],
      "name": "balanceOf",
      "outputs": [
        {
          "internalType": "uint256",
          "name": "",
          "type": "uint256"
        }
      ],
      "stateMutability": "view",
      "type": "function"
    },
    {
      "inputs": [
        {
          "internalType": "uint256",
          "name": "tokenId",
          "type": "uint256"
        }
      ],
      "name": "getApproved",
      "outputs": [
        {
          "internalType": "address",
          "name": "",
          "type": "address"
        }
      ],
      "stateMutability": "view",
      "type": "function"
    },
    {
      "inputs": [
        {
          "internalType": "uint256",
          "name": "_id",
          "type": "uint256"
        }
      ],
      "name": "getOccasion",
      "outputs": [
        {
          "components": [
            {
              "internalType": "uint256",
              "name": "id",
              "type": "uint256"
            },
            {
              "internalType": "string",
              "name": "name",
              "type": "string"
            },
            {
              "internalType": "uint256",
              "name": "cost",
              "type": "uint256"
            },
            {
              "internalType": "uint256",
              "name": "tickets",
              "type": "uint256"
            },
            {
              "internalType": "uint256",
              "name": "maxTickets",
              "type": "uint256"
            },
            {
              "internalType": "string",
              "name": "date",
              "type": "string"
            },
            {
              "internalType": "string",
              "name": "time",
              "type": "string"
            },
            {
              "internalType": "string",
              "name": "location",
              "type": "string"
            }
          ],
          "internalType": "struct TicketMaster.Occasion",
          "name": "",
          "type": "tuple"
        }
      ],
      "stateMutability": "view",
      "type": "function"
    },
    {
      "inputs": [
        {
          "internalType": "uint256",
          "name": "_id",
          "type": "uint256"
        }
      ],
      "name": "getSeatsTaken",
      "outputs": [
        {
          "internalType": "uint256[]",
          "name": "",
          "type": "uint256[]"
        }
      ],
      "stateMutability": "view",
      "type": "function"
    },
    {
      "inputs": [
        {
          "internalType": "uint256",
          "name": "",
          "type": "uint256"
        },
        {
          "internalType": "address",
          "name": "",
          "type": "address"
        }
      ],
      "name": "hasBought",
      "outputs": [
        {
          "internalType": "bool",
          "name": "",
          "type": "bool"
        }
      ],
      "stateMutability": "view",
      "type": "function"
    },
    {
      "inputs": [
        {
          "internalType": "address",
          "name": "owner",
          "type": "address"
        },
        {
          "internalType": "address",
          "name": "operator",
          "type": "address"
        }
      ],
      "name": "isApprovedForAll",
      "outputs": [
        {
          "internalType": "bool",
          "name": "",
          "type": "bool"
        }
      ],
      "stateMutability": "view",
      "type": "function"
    },
    {
      "inputs": [
        {
          "internalType": "string",
          "name": "_name",
          "type": "string"
        },
        {
          "internalType": "uint256",
          "name": "_cost",
          "type": "uint256"
        },
        {
          "internalType": "uint256",
          "name": "_maxTickets",
          "type": "uint256"
        },
        {
          "internalType": "string",
          "name": "_date",
          "type": "string"
        },
        {
          "internalType": "string",
          "name": "_time",
          "type": "string"
        },
        {
          "internalType": "string",
          "name": "_location",
          "type": "string"
        }
      ],
      "name": "list",
      "outputs": [],
      "stateMutability": "nonpayable",
      "type": "function"
    },
    {
      "inputs": [
        {
          "internalType": "uint256",
          "name": "_id",
          "type": "uint256"
        },
        {
          "internalType": "uint256",
          "name": "_seat",
          "type": "uint256"
        }
      ],
      "name": "mint",
      "outputs": [],
      "stateMutability": "payable",
      "type": "function"
    },
    {
      "inputs": [],
      "name": "name",
      "outputs": [
        {
          "internalType": "string",
          "name": "",
          "type": "string"
        }
      ],
      "stateMutability": "view",
      "type": "function"
    },
    {
      "inputs": [
        {
          "internalType": "uint256",
          "name": "",
          "type": "uint256"
        }
      ],
      "name": "occasions",
      "outputs": [
        {
          "internalType": "uint256",
          "name": "id",
          "type": "uint256"
        },
        {
          "internalType": "string",
          "name": "name",
          "type": "string"
        },
        {
          "internalType": "uint256",
          "name": "cost",
          "type": "uint256"
        },
        {
          "internalType": "uint256",
          "name": "tickets",
          "type": "uint256"
        },
        {
          "internalType": "uint256",
          "name": "maxTickets",
          "type": "uint256"
        },
        {
          "internalType": "string",
          "name": "date",
          "type": "string"
        },
        {
          "internalType": "string",
          "name": "time",
          "type": "string"
        },
        {
          "internalType": "string",
          "name": "location",
          "type": "string"
        }
      ],
      "stateMutability": "view",
      "type": "function"
    },
    {
      "inputs": [],
      "name": "owner",
      "outputs": [
        {
          "internalType": "address",
          "name": "",
          "type": "address"
        }
      ],
      "stateMutability": "view",
      "type": "function"
    },
    {
      "inputs": [
        {
          "internalType": "uint256",
          "name": "tokenId",
          "type": "uint256"
        }
      ],
      "name": "ownerOf",
      "outputs": [
        {
          "internalType": "address",
          "name": "",
          "type": "address"
        }
      ],
      "stateMutability": "view",
      "type": "function"
    },
    {
      "inputs": [],
      "name": "renounceOwnership",
      "outputs": [],
      "stateMutability": "nonpayable",
      "type": "function"
    },
    {
      "inputs": [
        {
          "internalType": "uint256",
          "name": "",
          "type": "uint256"
        }
      ],
      "name": "resaleAllowed",
      "outputs": [
        {
          "internalType": "bool",
          "name": "",
          "type": "bool"
        }
      ],
      "stateMutability": "view",
      "type": "function"
    },
    {
      "inputs": [
        {
          "internalType": "address",
          "name": "_to",
          "type": "address"
        },
        {
          "internalType": "uint256",
          "name": "_ticketId",
          "type": "uint256"
        }
      ],
      "name": "resellTicket",
      "outputs": [],
      "stateMutability": "nonpayable",
      "type": "function"
    },
    {
      "inputs": [
        {
          "internalType": "address",
          "name": "from",
          "type": "address"
        },
        {
          "internalType": "address",
          "name": "to",
          "type": "address"
        },
        {
          "internalType": "uint256",
          "name": "tokenId",
          "type": "uint256"
        }
      ],
      "name": "safeTransferFrom",
      "outputs": [],
      "stateMutability": "nonpayable",
      "type": "function"
    },
    {
      "inputs": [
        {
          "internalType": "address",
          "name": "from",
          "type": "address"
        },
        {
          "internalType": "address",
          "name": "to",
          "type": "address"
        },
        {
          "internalType": "uint256",
          "name": "tokenId",
          "type": "uint256"
        },
        {
          "internalType": "bytes",
          "name": "data",
          "type": "bytes"
        }
      ],
      "name": "safeTransferFrom",
      "outputs": [],
      "stateMutability": "nonpayable",
      "type": "function"
    },
    {
      "inputs": [
        {
          "internalType": "uint256",
          "name": "_ticketId",
          "type": "uint256"
        }
      ],
      "name": "scanTicket",
      "outputs": [],
      "stateMutability": "nonpayable",
      "type": "function"
    },
    {
      "inputs": [
        {
          "internalType": "uint256",
          "name": "",
          "type": "uint256"
        },
        {
          "internalType": "uint256",
          "name": "",
          "type": "uint256"
        }
      ],
      "name": "seatTaken",
      "outputs": [
        {
          "internalType": "address",
          "name": "",
          "type": "address"
        }
      ],
      "stateMutability": "view",
      "type": "function"
    },
    {
      "inputs": [
        {
          "internalType": "uint256",
          "name": "",
          "type": "uint256"
        },
        {
          "internalType": "uint256",
          "name": "",
          "type": "uint256"
        }
      ],
      "name": "seatsTaken",
      "outputs": [
        {
          "internalType": "uint256",
          "name": "",
          "type": "uint256"
        }
      ],
      "stateMutability": "view",
      "type": "function"
    },
    {
      "inputs": [
        {
          "internalType": "address",
          "name": "operator",
          "type": "address"
        },
        {
          "internalType": "bool",
          "name": "approved",
          "type": "bool"
        }
      ],
      "name": "setApprovalForAll",
      "outputs": [],
      "stateMutability": "nonpayable",
      "type": "function"
    },
    {
      "inputs": [
        {
          "internalType": "bytes4",
          "name": "interfaceId",
          "type": "bytes4"
        }
      ],
      "name": "supportsInterface",
      "outputs": [
        {
          "internalType": "bool",
          "name": "",
          "type": "bool"
        }
      ],
      "stateMutability": "view",
      "type": "function"
    },
    {
      "inputs": [],
      "name": "symbol",
      "outputs": [
        {
          "internalType": "string",
          "name": "",
          "type": "string"
        }
      ],
      "stateMutability": "view",
      "type": "function"
    },
    {
      "inputs": [
        {
          "internalType": "uint256",
          "name": "",
          "type": "uint256"
        }
      ],
      "name": "ticketExhausted",
      "outputs": [
        {
          "internalType": "bool",
          "name": "",
          "type": "bool"
        }
      ],
      "stateMutability": "view",
      "type": "function"
    },
    {
      "inputs": [
        {
          "internalType": "uint256",
          "name": "tokenId",
          "type": "uint256"
        }
      ],
      "name": "tokenURI",
      "outputs": [
        {
          "internalType": "string",
          "name": "",
          "type": "string"
        }
      ],
      "stateMutability": "view",
      "type": "function"
    },
    {
      "inputs": [],
      "name": "totalOccasions",
      "outputs": [
        {
          "internalType": "uint256",
          "name": "",
          "type": "uint256"
        }
      ],
      "stateMutability": "view",
      "type": "function"
    },
    {
      "inputs": [],
      "name": "totalSupply",
      "outputs": [
        {
          "internalType": "uint256",
          "name": "",
          "type": "uint256"
        }
      ],
      "stateMutability": "view",
      "type": "function"
    },
    {
      "inputs": [
        {
          "internalType": "address",
          "name": "from",
          "type": "address"
        },
        {
          "internalType": "address",
          "name": "to",
          "type": "address"
        },
        {
          "internalType": "uint256",
          "name": "tokenId",
          "type": "uint256"
        }
      ],
      "name": "transferFrom",
      "outputs": [],
      "stateMutability": "nonpayable",
      "type": "function"
    },
    {
      "inputs": [
        {
          "internalType": "address",
          "name": "newOwner",
          "type": "address"
        }
      ],
      "name": "transferOwnership",
      "outputs": [],
      "stateMutability": "nonpayable",
      "type": "function"
    }
  ],
  "bytecode": "0x60806040523480156200001157600080fd5b50336040518060400160405280600581526020017f546f6b656e0000000000000000000000000000000000000000000000000000008152506040518060400160405280600681526020017f5469636b65740000000000000000000000000000000000000000000000000000815250816000908162000090919062000472565b508060019081620000a2919062000472565b505050600073ffffffffffffffffffffffffffffffffffffffff168173ffffffffffffffffffffffffffffffffffffffff16036200011a5760006040517f1e4fbdf70000000000000000000000000000000000000000000000000000000081526004016200011191906200059e565b60405180910390fd5b6200012b816200013260201b60201c565b50620005bb565b6000600660009054906101000a900473ffffffffffffffffffffffffffffffffffffffff16905081600660006101000a81548173ffffffffffffffffffffffffffffffffffffffff021916908373ffffffffffffffffffffffffffffffffffffffff1602179055508173ffffffffffffffffffffffffffffffffffffffff168173ffffffffffffffffffffffffffffffffffffffff167f8be0079c531659141344cd1fd0a4f28419497f9722a3daafe3b4186f6b6457e060405160405180910390a35050565b600081519050919050565b7f4e487b7100000000000000000000000000000000000000000000000000000000600052604160045260246000fd5b7f4e487b7100000000000000000000000000000000000000000000000000000000600052602260045260246000fd5b600060028204905060018216806200027a57607f821691505b60208210810362000290576200028f62000232565b5b50919050565b60008190508160005260206000209050919050565b60006020601f8301049050919050565b600082821b905092915050565b600060088302620002fa7fffffffffffffffffffffffffffffffffffffffffffffffffffffffffffffffff82620002bb565b620003068683620002bb565b95508019841693508086168417925050509392505050565b6000819050919050565b6000819050919050565b6000620003536200034d62000347846200031e565b62000328565b6200031e565b9050919050565b6000819050919050565b6200036f8362000332565b620003876200037e826200035a565b848454620002c8565b825550505050565b600090565b6200039e6200038f565b620003ab81848462000364565b505050565b5b81811015620003d357620003c760008262000394565b600181019050620003b1565b5050565b601f8211156200042257620003ec8162000296565b620003f784620002ab565b8101602085101562000407578190505b6200041f6200041685620002ab565b830182620003b0565b50505b505050565b600082821c905092915050565b6000620004476000198460080262000427565b1980831691505092915050565b600062000462838362000434565b9150826002028217905092915050565b6200047d82620001f8565b67ffffffffffffffff81111562000499576200049862000203565b5b620004a5825462000261565b620004b2828285620003d7565b600060209050601f831160018114620004ea5760008415620004d5578287015190505b620004e1858262000454565b86555062000551565b601f198416620004fa8662000296565b60005b828110156200052457848901518255600182019150602085019450602081019050620004fd565b8683101562000544578489015162000540601f89168262000434565b8355505b6001600288020188555050505b505050505050565b600073ffffffffffffffffffffffffffffffffffffffff82169050919050565b6000620005868262000559565b9050919050565b620005988162000579565b82525050565b6000602082019050620005b560008301846200058d565b92915050565b613de380620005cb6000396000f3fe6080604052600436106101cd5760003560e01c806370a08231116100f75780639cb04aef11610095578063c87b56dd11610064578063c87b56dd146106de578063daf62ebb1461071b578063e985e9c514610744578063f2fde38b14610781576101cd565b80639cb04aef14610612578063a22cb4651461064f578063af296da114610678578063b88d4fde146106b5576101cd565b80638da5cb5b116100d15780638da5cb5b14610568578063953865c11461059357806395d89b41146105be5780639a382f0f146105e9576101cd565b806370a08231146104d7578063715018a61461051457806374bc86561461052b576101cd565b806318160ddd1161016f57806342842e0e1161013e57806342842e0e146103f05780634e7497fc1461041957806361a5672d146104565780636352211e1461049a576101cd565b806318160ddd146103575780631b2ef1ca1461038257806321b9656e1461039e57806323b872dd146103c7576101cd565b8063095ea7b3116101ab578063095ea7b3146102775780630b65ea16146102a05780630ef7ec74146102dd578063175372251461031a576101cd565b806301ffc9a7146101d257806306fdde031461020f578063081812fc1461023a575b600080fd5b3480156101de57600080fd5b506101f960048036038101906101f49190612b52565b6107aa565b6040516102069190612b9a565b60405180910390f35b34801561021b57600080fd5b5061022461088c565b6040516102319190612c45565b60405180910390f35b34801561024657600080fd5b50610261600480360381019061025c9190612c9d565b61091e565b60405161026e9190612d0b565b60405180910390f35b34801561028357600080fd5b5061029e60048036038101906102999190612d52565b61093a565b005b3480156102ac57600080fd5b506102c760048036038101906102c29190612c9d565b610950565b6040516102d49190612b9a565b60405180910390f35b3480156102e957600080fd5b5061030460048036038101906102ff9190612c9d565b610970565b6040516103119190612e50565b60405180910390f35b34801561032657600080fd5b50610341600480360381019061033c9190612c9d565b6109db565b60405161034e9190612b9a565b60405180910390f35b34801561036357600080fd5b5061036c6109fb565b6040516103799190612e81565b60405180910390f35b61039c60048036038101906103979190612e9c565b610a01565b005b3480156103aa57600080fd5b506103c560048036038101906103c09190612d52565b610d40565b005b3480156103d357600080fd5b506103ee60048036038101906103e99190612edc565b610e3c565b005b3480156103fc57600080fd5b5061041760048036038101906104129190612edc565b610f3e565b005b34801561042557600080fd5b50610440600480360381019061043b9190612e9c565b610f5e565b60405161044d9190612e81565b60405180910390f35b34801561046257600080fd5b5061047d60048036038101906104789190612c9d565b610f8f565b604051610491989796959493929190612f2f565b60405180910390f35b3480156104a657600080fd5b506104c160048036038101906104bc9190612c9d565b6111f7565b6040516104ce9190612d0b565b60405180910390f35b3480156104e357600080fd5b506104fe60048036038101906104f99190612fc9565b611209565b60405161050b9190612e81565b60405180910390f35b34801561052057600080fd5b506105296112c3565b005b34801561053757600080fd5b50610552600480360381019061054d9190612c9d565b6112d7565b60405161055f9190613105565b60405180910390f35b34801561057457600080fd5b5061057d611575565b60405161058a9190612d0b565b60405180910390f35b34801561059f57600080fd5b506105a861159f565b6040516105b59190612e81565b60405180910390f35b3480156105ca57600080fd5b506105d36115a5565b6040516105e09190612c45565b60405180910390f35b3480156105f557600080fd5b50610610600480360381019061060b919061325c565b611637565b005b34801561061e57600080fd5b5061063960048036038101906106349190613359565b611733565b6040516106469190612b9a565b60405180910390f35b34801561065b57600080fd5b50610676600480360381019061067191906133c5565b611762565b005b34801561068457600080fd5b5061069f600480360381019061069a9190612e9c565b611778565b6040516106ac9190612d0b565b60405180910390f35b3480156106c157600080fd5b506106dc60048036038101906106d791906134a6565b6117ba565b005b3480156106ea57600080fd5b5061070560048036038101906107009190612c9d565b6117df565b6040516107129190612c45565b60405180910390f35b34801561072757600080fd5b50610742600480360381019061073d9190612c9d565b611848565b005b34801561075057600080fd5b5061076b60048036038101906107669190613529565b611950565b6040516107789190612b9a565b60405180910390f35b34801561078d57600080fd5b506107a860048036038101906107a39190612fc9565b6119e4565b005b60007f80ac58cd000000000000000000000000000000000000000000000000000000007bffffffffffffffffffffffffffffffffffffffffffffffffffffffff1916827bffffffffffffffffffffffffffffffffffffffffffffffffffffffff1916148061087557507f5b5e139f000000000000000000000000000000000000000000000000000000007bffffffffffffffffffffffffffffffffffffffffffffffffffffffff1916827bffffffffffffffffffffffffffffffffffffffffffffffffffffffff1916145b80610885575061088482611a6a565b5b9050919050565b60606000805461089b90613598565b80601f01602080910402602001604051908101604052809291908181526020018280546108c790613598565b80156109145780601f106108e957610100808354040283529160200191610914565b820191906000526020600020905b8154815290600101906020018083116108f757829003601f168201915b5050505050905090565b600061092982611ad4565b5061093382611b5c565b9050919050565b61094c8282610947611b99565b611ba1565b5050565b600e6020528060005260406000206000915054906101000a900460ff1681565b6060600c60008381526020019081526020016000208054806020026020016040519081016040528092919081815260200182805480156109cf57602002820191906000526020600020905b8154815260200190600101908083116109bb575b50505050509050919050565b600d6020528060005260406000206000915054906101000a900460ff1681565b60085481565b60008214158015610a1457506007548211155b610a53576040517f08c379a0000000000000000000000000000000000000000000000000000000008152600401610a4a90613615565b60405180910390fd5b6009600083815260200190815260200160002060020154341015610aac576040517f08c379a0000000000000000000000000000000000000000000000000000000008152600401610aa390613681565b60405180910390fd5b600073ffffffffffffffffffffffffffffffffffffffff16600a6000848152602001908152602001600020600083815260200190815260200160002060009054906101000a900473ffffffffffffffffffffffffffffffffffffffff1673ffffffffffffffffffffffffffffffffffffffff1614610b5f576040517f08c379a0000000000000000000000000000000000000000000000000000000008152600401610b56906136ed565b60405180910390fd5b6009600083815260200190815260200160002060040154811115610bb8576040517f08c379a0000000000000000000000000000000000000000000000000000000008152600401610baf90613759565b60405180910390fd5b60086000815480929190610bcb906137a8565b9190505550600960008381526020019081526020016000206003016000815480929190610bf7906137f0565b91905055506001600b600084815260200190815260200160002060003373ffffffffffffffffffffffffffffffffffffffff1673ffffffffffffffffffffffffffffffffffffffff16815260200190815260200160002060006101000a81548160ff02191690831515021790555033600a6000848152602001908152602001600020600083815260200190815260200160002060006101000a81548173ffffffffffffffffffffffffffffffffffffffff021916908373ffffffffffffffffffffffffffffffffffffffff160217905550600c60008381526020019081526020016000208190806001815401808255809150506001900390600052602060002001600090919091909150556001600e6000600854815260200190815260200160002060006101000a81548160ff021916908315150217905550610d3c33600854611bb3565b5050565b600e600082815260200190815260200160002060009054906101000a900460ff16610da0576040517f08c379a0000000000000000000000000000000000000000000000000000000008152600401610d9790613865565b60405180910390fd5b600d600082815260200190815260200160002060009054906101000a900460ff1615610e01576040517f08c379a0000000000000000000000000000000000000000000000000000000008152600401610df8906138d1565b60405180910390fd5b610e0c338383611bd1565b6001600e600083815260200190815260200160002060006101000a81548160ff0219169083151502179055505050565b600073ffffffffffffffffffffffffffffffffffffffff168273ffffffffffffffffffffffffffffffffffffffff1603610eae5760006040517f64a0ae92000000000000000000000000000000000000000000000000000000008152600401610ea59190612d0b565b60405180910390fd5b6000610ec28383610ebd611b99565b611d3e565b90508373ffffffffffffffffffffffffffffffffffffffff168173ffffffffffffffffffffffffffffffffffffffff1614610f38578382826040517f64283d7b000000000000000000000000000000000000000000000000000000008152600401610f2f939291906138f1565b60405180910390fd5b50505050565b610f59838383604051806020016040528060008152506117ba565b505050565b600c6020528160005260406000208181548110610f7a57600080fd5b90600052602060002001600091509150505481565b6009602052806000526040600020600091509050806000015490806001018054610fb890613598565b80601f0160208091040260200160405190810160405280929190818152602001828054610fe490613598565b80156110315780601f1061100657610100808354040283529160200191611031565b820191906000526020600020905b81548152906001019060200180831161101457829003601f168201915b50505050509080600201549080600301549080600401549080600501805461105890613598565b80601f016020809104026020016040519081016040528092919081815260200182805461108490613598565b80156110d15780601f106110a6576101008083540402835291602001916110d1565b820191906000526020600020905b8154815290600101906020018083116110b457829003601f168201915b5050505050908060060180546110e690613598565b80601f016020809104026020016040519081016040528092919081815260200182805461111290613598565b801561115f5780601f106111345761010080835404028352916020019161115f565b820191906000526020600020905b81548152906001019060200180831161114257829003601f168201915b50505050509080600701805461117490613598565b80601f01602080910402602001604051908101604052809291908181526020018280546111a090613598565b80156111ed5780601f106111c2576101008083540402835291602001916111ed565b820191906000526020600020905b8154815290600101906020018083116111d057829003601f168201915b5050505050905088565b600061120282611ad4565b9050919050565b60008073ffffffffffffffffffffffffffffffffffffffff168273ffffffffffffffffffffffffffffffffffffffff160361127c5760006040517f89c62b640000000000000000000000000000000000000000000000000000000081526004016112739190612d0b565b60405180910390fd5b600360008373ffffffffffffffffffffffffffffffffffffffff1673ffffffffffffffffffffffffffffffffffffffff168152602001908152602001600020549050919050565b6112cb611f58565b6112d56000611fdf565b565b6112df612aa1565b60096000838152602001908152602001600020604051806101000160405290816000820154815260200160018201805461131890613598565b80601f016020809104026020016040519081016040528092919081815260200182805461134490613598565b80156113915780601f1061136657610100808354040283529160200191611391565b820191906000526020600020905b81548152906001019060200180831161137457829003601f168201915b505050505081526020016002820154815260200160038201548152602001600482015481526020016005820180546113c890613598565b80601f01602080910402602001604051908101604052809291908181526020018280546113f490613598565b80156114415780601f1061141657610100808354040283529160200191611441565b820191906000526020600020905b81548152906001019060200180831161142457829003601f168201915b5050505050815260200160068201805461145a90613598565b80601f016020809104026020016040519081016040528092919081815260200182805461148690613598565b80156114d35780601f106114a8576101008083540402835291602001916114d3565b820191906000526020600020905b8154815290600101906020018083116114b657829003601f168201915b505050505081526020016007820180546114ec90613598565b80601f016020809104026020016040519081016040528092919081815260200182805461151890613598565b80156115655780601f1061153a57610100808354040283529160200191611565565b820191906000526020600020905b81548152906001019060200180831161154857829003601f168201915b5050505050815250509050919050565b6000600660009054906101000a900473ffffffffffffffffffffffffffffffffffffffff16905090565b60075481565b6060600180546115b490613598565b80601f01602080910402602001604051908101604052809291908181526020018280546115e090613598565b801561162d5780601f106116025761010080835404028352916020019161162d565b820191906000526020600020905b81548152906001019060200180831161161057829003601f168201915b5050505050905090565b61163f611f58565b60076000815480929190611652906137a8565b91905055506040518061010001604052806007548152602001878152602001868152602001858152602001858152602001848152602001838152602001828152506009600060075481526020019081526020016000206000820151816000015560208201518160010190816116c79190613ad4565b5060408201518160020155606082015181600301556080820151816004015560a08201518160050190816116fb9190613ad4565b5060c08201518160060190816117119190613ad4565b5060e08201518160070190816117279190613ad4565b50905050505050505050565b600b6020528160005260406000206020528060005260406000206000915091509054906101000a900460ff1681565b61177461176d611b99565b83836120a5565b5050565b600a6020528160005260406000206020528060005260406000206000915091509054906101000a900473ffffffffffffffffffffffffffffffffffffffff1681565b6117c5848484610e3c565b6117d96117d0611b99565b85858585612214565b50505050565b60606117ea82611ad4565b5060006117f56123c5565b905060008151116118155760405180602001604052806000815250611840565b8061181f846123dc565b604051602001611830929190613be2565b6040516020818303038152906040525b915050919050565b611850611f58565b6008548111611894576040517f08c379a000000000000000000000000000000000000000000000000000000000815260040161188b90613c52565b60405180910390fd5b600d600082815260200190815260200160002060009054906101000a900460ff16156118f5576040517f08c379a00000000000000000000000000000000000000000000000000000000081526004016118ec906138d1565b60405180910390fd5b6001600d600083815260200190815260200160002060006101000a81548160ff0219169083151502179055506000600e600083815260200190815260200160002060006101000a81548160ff02191690831515021790555050565b6000600560008473ffffffffffffffffffffffffffffffffffffffff1673ffffffffffffffffffffffffffffffffffffffff16815260200190815260200160002060008373ffffffffffffffffffffffffffffffffffffffff1673ffffffffffffffffffffffffffffffffffffffff16815260200190815260200160002060009054906101000a900460ff16905092915050565b6119ec611f58565b600073ffffffffffffffffffffffffffffffffffffffff168173ffffffffffffffffffffffffffffffffffffffff1603611a5e5760006040517f1e4fbdf7000000000000000000000000000000000000000000000000000000008152600401611a559190612d0b565b60405180910390fd5b611a6781611fdf565b50565b60007f01ffc9a7000000000000000000000000000000000000000000000000000000007bffffffffffffffffffffffffffffffffffffffffffffffffffffffff1916827bffffffffffffffffffffffffffffffffffffffffffffffffffffffff1916149050919050565b600080611ae0836124aa565b9050600073ffffffffffffffffffffffffffffffffffffffff168173ffffffffffffffffffffffffffffffffffffffff1603611b5357826040517f7e273289000000000000000000000000000000000000000000000000000000008152600401611b4a9190612e81565b60405180910390fd5b80915050919050565b60006004600083815260200190815260200160002060009054906101000a900473ffffffffffffffffffffffffffffffffffffffff169050919050565b600033905090565b611bae83838360016124e7565b505050565b611bcd8282604051806020016040528060008152506126ac565b5050565b600073ffffffffffffffffffffffffffffffffffffffff168273ffffffffffffffffffffffffffffffffffffffff1603611c435760006040517f64a0ae92000000000000000000000000000000000000000000000000000000008152600401611c3a9190612d0b565b60405180910390fd5b6000611c5183836000611d3e565b9050600073ffffffffffffffffffffffffffffffffffffffff168173ffffffffffffffffffffffffffffffffffffffff1603611cc457816040517f7e273289000000000000000000000000000000000000000000000000000000008152600401611cbb9190612e81565b60405180910390fd5b8373ffffffffffffffffffffffffffffffffffffffff168173ffffffffffffffffffffffffffffffffffffffff1614611d38578382826040517f64283d7b000000000000000000000000000000000000000000000000000000008152600401611d2f939291906138f1565b60405180910390fd5b50505050565b600080611d4a846124aa565b9050600073ffffffffffffffffffffffffffffffffffffffff168373ffffffffffffffffffffffffffffffffffffffff1614611d8c57611d8b8184866126d0565b5b600073ffffffffffffffffffffffffffffffffffffffff168173ffffffffffffffffffffffffffffffffffffffff1614611e1d57611dce6000856000806124e7565b6001600360008373ffffffffffffffffffffffffffffffffffffffff1673ffffffffffffffffffffffffffffffffffffffff168152602001908152602001600020600082825403925050819055505b600073ffffffffffffffffffffffffffffffffffffffff168573ffffffffffffffffffffffffffffffffffffffff1614611ea0576001600360008773ffffffffffffffffffffffffffffffffffffffff1673ffffffffffffffffffffffffffffffffffffffff168152602001908152602001600020600082825401925050819055505b846002600086815260200190815260200160002060006101000a81548173ffffffffffffffffffffffffffffffffffffffff021916908373ffffffffffffffffffffffffffffffffffffffff160217905550838573ffffffffffffffffffffffffffffffffffffffff168273ffffffffffffffffffffffffffffffffffffffff167fddf252ad1be2c89b69c2b068fc378daa952ba7f163c4a11628f55a4df523b3ef60405160405180910390a4809150509392505050565b611f60611b99565b73ffffffffffffffffffffffffffffffffffffffff16611f7e611575565b73ffffffffffffffffffffffffffffffffffffffff1614611fdd57611fa1611b99565b6040517f118cdaa7000000000000000000000000000000000000000000000000000000008152600401611fd49190612d0b565b60405180910390fd5b565b6000600660009054906101000a900473ffffffffffffffffffffffffffffffffffffffff16905081600660006101000a81548173ffffffffffffffffffffffffffffffffffffffff021916908373ffffffffffffffffffffffffffffffffffffffff1602179055508173ffffffffffffffffffffffffffffffffffffffff168173ffffffffffffffffffffffffffffffffffffffff167f8be0079c531659141344cd1fd0a4f28419497f9722a3daafe3b4186f6b6457e060405160405180910390a35050565b600073ffffffffffffffffffffffffffffffffffffffff168273ffffffffffffffffffffffffffffffffffffffff160361211657816040517f5b08ba1800000000000000000000000000000000000000000000000000000000815260040161210d9190612d0b565b60405180910390fd5b80600560008573ffffffffffffffffffffffffffffffffffffffff1673ffffffffffffffffffffffffffffffffffffffff16815260200190815260200160002060008473ffffffffffffffffffffffffffffffffffffffff1673ffffffffffffffffffffffffffffffffffffffff16815260200190815260200160002060006101000a81548160ff0219169083151502179055508173ffffffffffffffffffffffffffffffffffffffff168373ffffffffffffffffffffffffffffffffffffffff167f17307eab39ab6107e8899845ad3d59bd9653f200f220920489ca2b5937696c31836040516122079190612b9a565b60405180910390a3505050565b60008373ffffffffffffffffffffffffffffffffffffffff163b11156123be578273ffffffffffffffffffffffffffffffffffffffff1663150b7a02868685856040518563ffffffff1660e01b81526004016122739493929190613cc7565b6020604051808303816000875af19250505080156122af57506040513d601f19601f820116820180604052508101906122ac9190613d28565b60015b612333573d80600081146122df576040519150601f19603f3d011682016040523d82523d6000602084013e6122e4565b606091505b50600081510361232b57836040517f64a0ae920000000000000000000000000000000000000000000000000000000081526004016123229190612d0b565b60405180910390fd5b805181602001fd5b63150b7a0260e01b7bffffffffffffffffffffffffffffffffffffffffffffffffffffffff1916817bffffffffffffffffffffffffffffffffffffffffffffffffffffffff1916146123bc57836040517f64a0ae920000000000000000000000000000000000000000000000000000000081526004016123b39190612d0b565b60405180910390fd5b505b5050505050565b606060405180602001604052806000815250905090565b6060600060016123eb84612794565b01905060008167ffffffffffffffff81111561240a57612409613131565b5b6040519080825280601f01601f19166020018201604052801561243c5781602001600182028036833780820191505090505b509050600082602001820190505b60011561249f578080600190039150507f3031323334353637383961626364656600000000000000000000000000000000600a86061a8153600a858161249357612492613d55565b5b0494506000850361244a575b819350505050919050565b60006002600083815260200190815260200160002060009054906101000a900473ffffffffffffffffffffffffffffffffffffffff169050919050565b80806125205750600073ffffffffffffffffffffffffffffffffffffffff168273ffffffffffffffffffffffffffffffffffffffff1614155b1561265457600061253084611ad4565b9050600073ffffffffffffffffffffffffffffffffffffffff168373ffffffffffffffffffffffffffffffffffffffff161415801561259b57508273ffffffffffffffffffffffffffffffffffffffff168173ffffffffffffffffffffffffffffffffffffffff1614155b80156125ae57506125ac8184611950565b155b156125f057826040517fa9fbf51f0000000000000000000000000000000000000000000000000000000081526004016125e79190612d0b565b60405180910390fd5b811561265257838573ffffffffffffffffffffffffffffffffffffffff168273ffffffffffffffffffffffffffffffffffffffff167f8c5be1e5ebec7d5bd14f71427d1e84f3dd0314c0f7b2291e5b200ac8c7c3b92560405160405180910390a45b505b836004600085815260200190815260200160002060006101000a81548173ffffffffffffffffffffffffffffffffffffffff021916908373ffffffffffffffffffffffffffffffffffffffff16021790555050505050565b6126b683836128e7565b6126cb6126c1611b99565b6000858585612214565b505050565b6126db8383836129e0565b61278f57600073ffffffffffffffffffffffffffffffffffffffff168373ffffffffffffffffffffffffffffffffffffffff160361275057806040517f7e2732890000000000000000000000000000000000000000000000000000000081526004016127479190612e81565b60405180910390fd5b81816040517f177e802f000000000000000000000000000000000000000000000000000000008152600401612786929190613d84565b60405180910390fd5b505050565b600080600090507a184f03e93ff9f4daa797ed6e38ed64bf6a1f01000000000000000083106127f2577a184f03e93ff9f4daa797ed6e38ed64bf6a1f01000000000000000083816127e8576127e7613d55565b5b0492506040810190505b6d04ee2d6d415b85acef8100000000831061282f576d04ee2d6d415b85acef8100000000838161282557612824613d55565b5b0492506020810190505b662386f26fc10000831061285e57662386f26fc10000838161285457612853613d55565b5b0492506010810190505b6305f5e1008310612887576305f5e100838161287d5761287c613d55565b5b0492506008810190505b61271083106128ac5761271083816128a2576128a1613d55565b5b0492506004810190505b606483106128cf57606483816128c5576128c4613d55565b5b0492506002810190505b600a83106128de576001810190505b80915050919050565b600073ffffffffffffffffffffffffffffffffffffffff168273ffffffffffffffffffffffffffffffffffffffff16036129595760006040517f64a0ae920000000000000000000000000000000000000000000000000000000081526004016129509190612d0b565b60405180910390fd5b600061296783836000611d3e565b9050600073ffffffffffffffffffffffffffffffffffffffff168173ffffffffffffffffffffffffffffffffffffffff16146129db5760006040517f73c6ac6e0000000000000000000000000000000000000000000000000000000081526004016129d29190612d0b565b60405180910390fd5b505050565b60008073ffffffffffffffffffffffffffffffffffffffff168373ffffffffffffffffffffffffffffffffffffffff1614158015612a9857508273ffffffffffffffffffffffffffffffffffffffff168473ffffffffffffffffffffffffffffffffffffffff161480612a595750612a588484611950565b5b80612a9757508273ffffffffffffffffffffffffffffffffffffffff16612a7f83611b5c565b73ffffffffffffffffffffffffffffffffffffffff16145b5b90509392505050565b60405180610100016040528060008152602001606081526020016000815260200160008152602001600081526020016060815260200160608152602001606081525090565b6000604051905090565b600080fd5b600080fd5b60007fffffffff0000000000000000000000000000000000000000000000000000000082169050919050565b612b2f81612afa565b8114612b3a57600080fd5b50565b600081359050612b4c81612b26565b92915050565b600060208284031215612b6857612b67612af0565b5b6000612b7684828501612b3d565b91505092915050565b60008115159050919050565b612b9481612b7f565b82525050565b6000602082019050612baf6000830184612b8b565b92915050565b600081519050919050565b600082825260208201905092915050565b60005b83811015612bef578082015181840152602081019050612bd4565b60008484015250505050565b6000601f19601f8301169050919050565b6000612c1782612bb5565b612c218185612bc0565b9350612c31818560208601612bd1565b612c3a81612bfb565b840191505092915050565b60006020820190508181036000830152612c5f8184612c0c565b905092915050565b6000819050919050565b612c7a81612c67565b8114612c8557600080fd5b50565b600081359050612c9781612c71565b92915050565b600060208284031215612cb357612cb2612af0565b5b6000612cc184828501612c88565b91505092915050565b600073ffffffffffffffffffffffffffffffffffffffff82169050919050565b6000612cf582612cca565b9050919050565b612d0581612cea565b82525050565b6000602082019050612d206000830184612cfc565b92915050565b612d2f81612cea565b8114612d3a57600080fd5b50565b600081359050612d4c81612d26565b92915050565b60008060408385031215612d6957612d68612af0565b5b6000612d7785828601612d3d565b9250506020612d8885828601612c88565b9150509250929050565b600081519050919050565b600082825260208201905092915050565b6000819050602082019050919050565b612dc781612c67565b82525050565b6000612dd98383612dbe565b60208301905092915050565b6000602082019050919050565b6000612dfd82612d92565b612e078185612d9d565b9350612e1283612dae565b8060005b83811015612e43578151612e2a8882612dcd565b9750612e3583612de5565b925050600181019050612e16565b5085935050505092915050565b60006020820190508181036000830152612e6a8184612df2565b905092915050565b612e7b81612c67565b82525050565b6000602082019050612e966000830184612e72565b92915050565b60008060408385031215612eb357612eb2612af0565b5b6000612ec185828601612c88565b9250506020612ed285828601612c88565b9150509250929050565b600080600060608486031215612ef557612ef4612af0565b5b6000612f0386828701612d3d565b9350506020612f1486828701612d3d565b9250506040612f2586828701612c88565b9150509250925092565b600061010082019050612f45600083018b612e72565b8181036020830152612f57818a612c0c565b9050612f666040830189612e72565b612f736060830188612e72565b612f806080830187612e72565b81810360a0830152612f928186612c0c565b905081810360c0830152612fa68185612c0c565b905081810360e0830152612fba8184612c0c565b90509998505050505050505050565b600060208284031215612fdf57612fde612af0565b5b6000612fed84828501612d3d565b91505092915050565b600082825260208201905092915050565b600061301282612bb5565b61301c8185612ff6565b935061302c818560208601612bd1565b61303581612bfb565b840191505092915050565b6000610100830160008301516130596000860182612dbe565b50602083015184820360208601526130718282613007565b91505060408301516130866040860182612dbe565b5060608301516130996060860182612dbe565b5060808301516130ac6080860182612dbe565b5060a083015184820360a08601526130c48282613007565b91505060c083015184820360c08601526130de8282613007565b91505060e083015184820360e08601526130f88282613007565b9150508091505092915050565b6000602082019050818103600083015261311f8184613040565b905092915050565b600080fd5b600080fd5b7f4e487b7100000000000000000000000000000000000000000000000000000000600052604160045260246000fd5b61316982612bfb565b810181811067ffffffffffffffff8211171561318857613187613131565b5b80604052505050565b600061319b612ae6565b90506131a78282613160565b919050565b600067ffffffffffffffff8211156131c7576131c6613131565b5b6131d082612bfb565b9050602081019050919050565b82818337600083830152505050565b60006131ff6131fa846131ac565b613191565b90508281526020810184848401111561321b5761321a61312c565b5b6132268482856131dd565b509392505050565b600082601f83011261324357613242613127565b5b81356132538482602086016131ec565b91505092915050565b60008060008060008060c0878903121561327957613278612af0565b5b600087013567ffffffffffffffff81111561329757613296612af5565b5b6132a389828a0161322e565b96505060206132b489828a01612c88565b95505060406132c589828a01612c88565b945050606087013567ffffffffffffffff8111156132e6576132e5612af5565b5b6132f289828a0161322e565b935050608087013567ffffffffffffffff81111561331357613312612af5565b5b61331f89828a0161322e565b92505060a087013567ffffffffffffffff8111156133405761333f612af5565b5b61334c89828a0161322e565b9150509295509295509295565b600080604083850312156133705761336f612af0565b5b600061337e85828601612c88565b925050602061338f85828601612d3d565b9150509250929050565b6133a281612b7f565b81146133ad57600080fd5b50565b6000813590506133bf81613399565b92915050565b600080604083850312156133dc576133db612af0565b5b60006133ea85828601612d3d565b92505060206133fb858286016133b0565b9150509250929050565b600067ffffffffffffffff8211156134205761341f613131565b5b61342982612bfb565b9050602081019050919050565b600061344961344484613405565b613191565b9050828152602081018484840111156134655761346461312c565b5b6134708482856131dd565b509392505050565b600082601f83011261348d5761348c613127565b5b813561349d848260208601613436565b91505092915050565b600080600080608085870312156134c0576134bf612af0565b5b60006134ce87828801612d3d565b94505060206134df87828801612d3d565b93505060406134f087828801612c88565b925050606085013567ffffffffffffffff81111561351157613510612af5565b5b61351d87828801613478565b91505092959194509250565b600080604083850312156135405761353f612af0565b5b600061354e85828601612d3d565b925050602061355f85828601612d3d565b9150509250929050565b7f4e487b7100000000000000000000000000000000000000000000000000000000600052602260045260246000fd5b600060028204905060018216806135b057607f821691505b6020821081036135c3576135c2613569565b5b50919050565b7f496e76616c6964206f63636173696f6e20494400000000000000000000000000600082015250565b60006135ff601383612bc0565b915061360a826135c9565b602082019050919050565b6000602082019050818103600083015261362e816135f2565b9050919050565b7f496e73756666696369656e74204554482073656e740000000000000000000000600082015250565b600061366b601583612bc0565b915061367682613635565b602082019050919050565b6000602082019050818103600083015261369a8161365e565b9050919050565b7f5365617420616c72656164792074616b656e0000000000000000000000000000600082015250565b60006136d7601283612bc0565b91506136e2826136a1565b602082019050919050565b60006020820190508181036000830152613706816136ca565b9050919050565b7f496e76616c69642073656174206e756d62657200000000000000000000000000600082015250565b6000613743601383612bc0565b915061374e8261370d565b602082019050919050565b6000602082019050818103600083015261377281613736565b9050919050565b7f4e487b7100000000000000000000000000000000000000000000000000000000600052601160045260246000fd5b60006137b382612c67565b91507fffffffffffffffffffffffffffffffffffffffffffffffffffffffffffffffff82036137e5576137e4613779565b5b600182019050919050565b60006137fb82612c67565b91506000820361380e5761380d613779565b5b600182039050919050565b7f526573616c65206e6f7420616c6c6f7765640000000000000000000000000000600082015250565b600061384f601283612bc0565b915061385a82613819565b602082019050919050565b6000602082019050818103600083015261387e81613842565b9050919050565b7f5469636b657420616c7265616479207573656400000000000000000000000000600082015250565b60006138bb601383612bc0565b91506138c682613885565b602082019050919050565b600060208201905081810360008301526138ea816138ae565b9050919050565b60006060820190506139066000830186612cfc565b6139136020830185612e72565b6139206040830184612cfc565b949350505050565b60008190508160005260206000209050919050565b60006020601f8301049050919050565b600082821b905092915050565b60006008830261398a7fffffffffffffffffffffffffffffffffffffffffffffffffffffffffffffffff8261394d565b613994868361394d565b95508019841693508086168417925050509392505050565b6000819050919050565b60006139d16139cc6139c784612c67565b6139ac565b612c67565b9050919050565b6000819050919050565b6139eb836139b6565b6139ff6139f7826139d8565b84845461395a565b825550505050565b600090565b613a14613a07565b613a1f8184846139e2565b505050565b5b81811015613a4357613a38600082613a0c565b600181019050613a25565b5050565b601f821115613a8857613a5981613928565b613a628461393d565b81016020851015613a71578190505b613a85613a7d8561393d565b830182613a24565b50505b505050565b600082821c905092915050565b6000613aab60001984600802613a8d565b1980831691505092915050565b6000613ac48383613a9a565b9150826002028217905092915050565b613add82612bb5565b67ffffffffffffffff811115613af657613af5613131565b5b613b008254613598565b613b0b828285613a47565b600060209050601f831160018114613b3e5760008415613b2c578287015190505b613b368582613ab8565b865550613b9e565b601f198416613b4c86613928565b60005b82811015613b7457848901518255600182019150602085019450602081019050613b4f565b86831015613b915784890151613b8d601f891682613a9a565b8355505b6001600288020188555050505b505050505050565b600081905092915050565b6000613bbc82612bb5565b613bc68185613ba6565b9350613bd6818560208601612bd1565b80840191505092915050565b6000613bee8285613bb1565b9150613bfa8284613bb1565b91508190509392505050565b7f5469636b657420646f6573206e6f742065786973740000000000000000000000600082015250565b6000613c3c601583612bc0565b9150613c4782613c06565b602082019050919050565b60006020820190508181036000830152613c6b81613c2f565b9050919050565b600081519050919050565b600082825260208201905092915050565b6000613c9982613c72565b613ca38185613c7d565b9350613cb3818560208601612bd1565b613cbc81612bfb565b840191505092915050565b6000608082019050613cdc6000830187612cfc565b613ce96020830186612cfc565b613cf66040830185612e72565b8181036060830152613d088184613c8e565b905095945050505050565b600081519050613d2281612b26565b92915050565b600060208284031215613d3e57613d3d612af0565b5b6000613d4c84828501613d13565b91505092915050565b7f4e487b7100000000000000000000000000000000000000000000000000000000600052601260045260246000fd5b6000604082019050613d996000830185612cfc565b613da66020830184612e72565b939250505056fea26469706673582212205e8e261bdd4da6e91cc45a3334b981407816ebc49017a3914bcc32110fcf6b0e64736f6c63430008140033",
  "linkReferences": {},
  "deployedLinkReferences": {}
}