{
  "_format": "hh-sol-artifact-1",
  "contractName": "De_Ticket",
  "sourceName": "contracts/De_Ticket.sol",
  "abi": [
    {
      "inputs": [],
      "stateMutability": "nonpayable",
      "type": "constructor"
    },
    {
      "inputs": [
        {
          "internalType": "address",
          "name": "sender",
          "type": "address"
        },
        {
          "internalType": "uint256",
          "name": "tokenId",
          "type": "uint256"
        },
        {
          "internalType": "address",
          "name": "owner",
          "type": "address"
        }
      ],
      "name": "ERC721IncorrectOwner",
      "type": "error"
    },
    {
      "inputs": [
        {
          "internalType": "address",
          "name": "operator",
          "type": "address"
        },
        {
          "internalType": "uint256",
          "name": "tokenId",
          "type": "uint256"
        }
      ],
      "name": "ERC721InsufficientApproval",
      "type": "error"
    },
    {
      "inputs": [
        {
          "internalType": "address",
          "name": "approver",
          "type": "address"
        }
      ],
      "name": "ERC721InvalidApprover",
      "type": "error"
    },
    {
      "inputs": [
        {
          "internalType": "address",
          "name": "operator",
          "type": "address"
        }
      ],
      "name": "ERC721InvalidOperator",
      "type": "error"
    },
    {
      "inputs": [
        {
          "internalType": "address",
          "name": "owner",
          "type": "address"
        }
      ],
      "name": "ERC721InvalidOwner",
      "type": "error"
    },
    {
      "inputs": [
        {
          "internalType": "address",
          "name": "receiver",
          "type": "address"
        }
      ],
      "name": "ERC721InvalidReceiver",
      "type": "error"
    },
    {
      "inputs": [
        {
          "internalType": "address",
          "name": "sender",
          "type": "address"
        }
      ],
      "name": "ERC721InvalidSender",
      "type": "error"
    },
    {
      "inputs": [
        {
          "internalType": "uint256",
          "name": "tokenId",
          "type": "uint256"
        }
      ],
      "name": "ERC721NonexistentToken",
      "type": "error"
    },
    {
      "inputs": [
        {
          "internalType": "address",
          "name": "owner",
          "type": "address"
        }
      ],
      "name": "OwnableInvalidOwner",
      "type": "error"
    },
    {
      "inputs": [
        {
          "internalType": "address",
          "name": "account",
          "type": "address"
        }
      ],
      "name": "OwnableUnauthorizedAccount",
      "type": "error"
    },
    {
      "anonymous": false,
      "inputs": [
        {
          "indexed": true,
          "internalType": "address",
          "name": "owner",
          "type": "address"
        },
        {
          "indexed": true,
          "internalType": "address",
          "name": "approved",
          "type": "address"
        },
        {
          "indexed": true,
          "internalType": "uint256",
          "name": "tokenId",
          "type": "uint256"
        }
      ],
      "name": "Approval",
      "type": "event"
    },
    {
      "anonymous": false,
      "inputs": [
        {
          "indexed": true,
          "internalType": "address",
          "name": "owner",
          "type": "address"
        },
        {
          "indexed": true,
          "internalType": "address",
          "name": "operator",
          "type": "address"
        },
        {
          "indexed": false,
          "internalType": "bool",
          "name": "approved",
          "type": "bool"
        }
      ],
      "name": "ApprovalForAll",
      "type": "event"
    },
    {
      "anonymous": false,
      "inputs": [
        {
          "indexed": true,
          "internalType": "address",
          "name": "previousOwner",
          "type": "address"
        },
        {
          "indexed": true,
          "internalType": "address",
          "name": "newOwner",
          "type": "address"
        }
      ],
      "name": "OwnershipTransferred",
      "type": "event"
    },
    {
      "anonymous": false,
      "inputs": [
        {
          "indexed": true,
          "internalType": "address",
          "name": "from",
          "type": "address"
        },
        {
          "indexed": true,
          "internalType": "address",
          "name": "to",
          "type": "address"
        },
        {
          "indexed": true,
          "internalType": "uint256",
          "name": "tokenId",
          "type": "uint256"
        }
      ],
      "name": "Transfer",
      "type": "event"
    },
    {
      "inputs": [
        {
          "internalType": "address",
          "name": "to",
          "type": "address"
        },
        {
          "internalType": "uint256",
          "name": "tokenId",
          "type": "uint256"
        }
      ],
      "name": "approve",
      "outputs": [],
      "stateMutability": "nonpayable",
      "type": "function"
    },
    {
      "inputs": [
        {
          "internalType": "address",
          "name": "owner",
          "type": "address"
        }
      ],
      "name": "balanceOf",
      "outputs": [
        {
          "internalType": "uint256",
          "name": "",
          "type": "uint256"
        }
      ],
      "stateMutability": "view",
      "type": "function"
    },
    {
      "inputs": [
        {
          "internalType": "uint256",
          "name": "tokenId",
          "type": "uint256"
        }
      ],
      "name": "getApproved",
      "outputs": [
        {
          "internalType": "address",
          "name": "",
          "type": "address"
        }
      ],
      "stateMutability": "view",
      "type": "function"
    },
    {
      "inputs": [
        {
          "internalType": "uint256",
          "name": "_id",
          "type": "uint256"
        }
      ],
      "name": "getOccasion",
      "outputs": [
        {
          "components": [
            {
              "internalType": "uint256",
              "name": "id",
              "type": "uint256"
            },
            {
              "internalType": "string",
              "name": "name",
              "type": "string"
            },
            {
              "internalType": "uint256",
              "name": "cost",
              "type": "uint256"
            },
            {
              "internalType": "uint256",
              "name": "tickets",
              "type": "uint256"
            },
            {
              "internalType": "uint256",
              "name": "maxTickets",
              "type": "uint256"
            },
            {
              "internalType": "string",
              "name": "date",
              "type": "string"
            },
            {
              "internalType": "string",
              "name": "time",
              "type": "string"
            },
            {
              "internalType": "string",
              "name": "location",
              "type": "string"
            },
            {
              "internalType": "string",
              "name": "vrVideo",
              "type": "string"
            }
          ],
          "internalType": "struct De_Ticket.Occasion",
          "name": "",
          "type": "tuple"
        }
      ],
      "stateMutability": "view",
      "type": "function"
    },
    {
      "inputs": [
        {
          "internalType": "uint256",
          "name": "_id",
          "type": "uint256"
        }
      ],
      "name": "getSeatsTaken",
      "outputs": [
        {
          "internalType": "uint256[]",
          "name": "",
          "type": "uint256[]"
        }
      ],
      "stateMutability": "view",
      "type": "function"
    },
    {
      "inputs": [
        {
          "internalType": "uint256",
          "name": "",
          "type": "uint256"
        },
        {
          "internalType": "address",
          "name": "",
          "type": "address"
        }
      ],
      "name": "hasBought",
      "outputs": [
        {
          "internalType": "bool",
          "name": "",
          "type": "bool"
        }
      ],
      "stateMutability": "view",
      "type": "function"
    },
    {
      "inputs": [
        {
          "internalType": "address",
          "name": "owner",
          "type": "address"
        },
        {
          "internalType": "address",
          "name": "operator",
          "type": "address"
        }
      ],
      "name": "isApprovedForAll",
      "outputs": [
        {
          "internalType": "bool",
          "name": "",
          "type": "bool"
        }
      ],
      "stateMutability": "view",
      "type": "function"
    },
    {
      "inputs": [
        {
          "internalType": "string",
          "name": "_name",
          "type": "string"
        },
        {
          "internalType": "uint256",
          "name": "_cost",
          "type": "uint256"
        },
        {
          "internalType": "uint256",
          "name": "_maxTickets",
          "type": "uint256"
        },
        {
          "internalType": "string",
          "name": "_date",
          "type": "string"
        },
        {
          "internalType": "string",
          "name": "_time",
          "type": "string"
        },
        {
          "internalType": "string",
          "name": "_location",
          "type": "string"
        },
        {
          "internalType": "string",
          "name": "_vrVideo",
          "type": "string"
        }
      ],
      "name": "list",
      "outputs": [],
      "stateMutability": "nonpayable",
      "type": "function"
    },
    {
      "inputs": [
        {
          "internalType": "uint256",
          "name": "_id",
          "type": "uint256"
        },
        {
          "internalType": "uint256",
          "name": "_seat",
          "type": "uint256"
        }
      ],
      "name": "mint",
      "outputs": [],
      "stateMutability": "payable",
      "type": "function"
    },
    {
      "inputs": [],
      "name": "name",
      "outputs": [
        {
          "internalType": "string",
          "name": "",
          "type": "string"
        }
      ],
      "stateMutability": "view",
      "type": "function"
    },
    {
      "inputs": [
        {
          "internalType": "uint256",
          "name": "",
          "type": "uint256"
        }
      ],
      "name": "occasions",
      "outputs": [
        {
          "internalType": "uint256",
          "name": "id",
          "type": "uint256"
        },
        {
          "internalType": "string",
          "name": "name",
          "type": "string"
        },
        {
          "internalType": "uint256",
          "name": "cost",
          "type": "uint256"
        },
        {
          "internalType": "uint256",
          "name": "tickets",
          "type": "uint256"
        },
        {
          "internalType": "uint256",
          "name": "maxTickets",
          "type": "uint256"
        },
        {
          "internalType": "string",
          "name": "date",
          "type": "string"
        },
        {
          "internalType": "string",
          "name": "time",
          "type": "string"
        },
        {
          "internalType": "string",
          "name": "location",
          "type": "string"
        },
        {
          "internalType": "string",
          "name": "vrVideo",
          "type": "string"
        }
      ],
      "stateMutability": "view",
      "type": "function"
    },
    {
      "inputs": [],
      "name": "owner",
      "outputs": [
        {
          "internalType": "address",
          "name": "",
          "type": "address"
        }
      ],
      "stateMutability": "view",
      "type": "function"
    },
    {
      "inputs": [
        {
          "internalType": "uint256",
          "name": "tokenId",
          "type": "uint256"
        }
      ],
      "name": "ownerOf",
      "outputs": [
        {
          "internalType": "address",
          "name": "",
          "type": "address"
        }
      ],
      "stateMutability": "view",
      "type": "function"
    },
    {
      "inputs": [],
      "name": "renounceOwnership",
      "outputs": [],
      "stateMutability": "nonpayable",
      "type": "function"
    },
    {
      "inputs": [
        {
          "internalType": "uint256",
          "name": "",
          "type": "uint256"
        }
      ],
      "name": "resaleAllowed",
      "outputs": [
        {
          "internalType": "bool",
          "name": "",
          "type": "bool"
        }
      ],
      "stateMutability": "view",
      "type": "function"
    },
    {
      "inputs": [
        {
          "internalType": "address",
          "name": "_to",
          "type": "address"
        },
        {
          "internalType": "uint256",
          "name": "_ticketId",
          "type": "uint256"
        }
      ],
      "name": "resellTicket",
      "outputs": [],
      "stateMutability": "nonpayable",
      "type": "function"
    },
    {
      "inputs": [
        {
          "internalType": "address",
          "name": "from",
          "type": "address"
        },
        {
          "internalType": "address",
          "name": "to",
          "type": "address"
        },
        {
          "internalType": "uint256",
          "name": "tokenId",
          "type": "uint256"
        }
      ],
      "name": "safeTransferFrom",
      "outputs": [],
      "stateMutability": "nonpayable",
      "type": "function"
    },
    {
      "inputs": [
        {
          "internalType": "address",
          "name": "from",
          "type": "address"
        },
        {
          "internalType": "address",
          "name": "to",
          "type": "address"
        },
        {
          "internalType": "uint256",
          "name": "tokenId",
          "type": "uint256"
        },
        {
          "internalType": "bytes",
          "name": "data",
          "type": "bytes"
        }
      ],
      "name": "safeTransferFrom",
      "outputs": [],
      "stateMutability": "nonpayable",
      "type": "function"
    },
    {
      "inputs": [
        {
          "internalType": "uint256",
          "name": "_ticketId",
          "type": "uint256"
        }
      ],
      "name": "scanTicket",
      "outputs": [],
      "stateMutability": "nonpayable",
      "type": "function"
    },
    {
      "inputs": [
        {
          "internalType": "uint256",
          "name": "",
          "type": "uint256"
        },
        {
          "internalType": "uint256",
          "name": "",
          "type": "uint256"
        }
      ],
      "name": "seatTaken",
      "outputs": [
        {
          "internalType": "address",
          "name": "",
          "type": "address"
        }
      ],
      "stateMutability": "view",
      "type": "function"
    },
    {
      "inputs": [
        {
          "internalType": "uint256",
          "name": "",
          "type": "uint256"
        },
        {
          "internalType": "uint256",
          "name": "",
          "type": "uint256"
        }
      ],
      "name": "seatsTaken",
      "outputs": [
        {
          "internalType": "uint256",
          "name": "",
          "type": "uint256"
        }
      ],
      "stateMutability": "view",
      "type": "function"
    },
    {
      "inputs": [
        {
          "internalType": "address",
          "name": "operator",
          "type": "address"
        },
        {
          "internalType": "bool",
          "name": "approved",
          "type": "bool"
        }
      ],
      "name": "setApprovalForAll",
      "outputs": [],
      "stateMutability": "nonpayable",
      "type": "function"
    },
    {
      "inputs": [
        {
          "internalType": "bytes4",
          "name": "interfaceId",
          "type": "bytes4"
        }
      ],
      "name": "supportsInterface",
      "outputs": [
        {
          "internalType": "bool",
          "name": "",
          "type": "bool"
        }
      ],
      "stateMutability": "view",
      "type": "function"
    },
    {
      "inputs": [],
      "name": "symbol",
      "outputs": [
        {
          "internalType": "string",
          "name": "",
          "type": "string"
        }
      ],
      "stateMutability": "view",
      "type": "function"
    },
    {
      "inputs": [
        {
          "internalType": "uint256",
          "name": "",
          "type": "uint256"
        }
      ],
      "name": "ticketExhausted",
      "outputs": [
        {
          "internalType": "bool",
          "name": "",
          "type": "bool"
        }
      ],
      "stateMutability": "view",
      "type": "function"
    },
    {
      "inputs": [
        {
          "internalType": "uint256",
          "name": "tokenId",
          "type": "uint256"
        }
      ],
      "name": "tokenURI",
      "outputs": [
        {
          "internalType": "string",
          "name": "",
          "type": "string"
        }
      ],
      "stateMutability": "view",
      "type": "function"
    },
    {
      "inputs": [],
      "name": "totalOccasions",
      "outputs": [
        {
          "internalType": "uint256",
          "name": "",
          "type": "uint256"
        }
      ],
      "stateMutability": "view",
      "type": "function"
    },
    {
      "inputs": [],
      "name": "totalSupply",
      "outputs": [
        {
          "internalType": "uint256",
          "name": "",
          "type": "uint256"
        }
      ],
      "stateMutability": "view",
      "type": "function"
    },
    {
      "inputs": [
        {
          "internalType": "address",
          "name": "from",
          "type": "address"
        },
        {
          "internalType": "address",
          "name": "to",
          "type": "address"
        },
        {
          "internalType": "uint256",
          "name": "tokenId",
          "type": "uint256"
        }
      ],
      "name": "transferFrom",
      "outputs": [],
      "stateMutability": "nonpayable",
      "type": "function"
    },
    {
      "inputs": [
        {
          "internalType": "address",
          "name": "newOwner",
          "type": "address"
        }
      ],
      "name": "transferOwnership",
      "outputs": [],
      "stateMutability": "nonpayable",
      "type": "function"
    }
  ],
  "bytecode": "0x60806040523480156200001157600080fd5b50336040518060400160405280600581526020017f546f6b656e0000000000000000000000000000000000000000000000000000008152506040518060400160405280600681526020017f5469636b65740000000000000000000000000000000000000000000000000000815250816000908162000090919062000472565b508060019081620000a2919062000472565b505050600073ffffffffffffffffffffffffffffffffffffffff168173ffffffffffffffffffffffffffffffffffffffff16036200011a5760006040517f1e4fbdf70000000000000000000000000000000000000000000000000000000081526004016200011191906200059e565b60405180910390fd5b6200012b816200013260201b60201c565b50620005bb565b6000600660009054906101000a900473ffffffffffffffffffffffffffffffffffffffff16905081600660006101000a81548173ffffffffffffffffffffffffffffffffffffffff021916908373ffffffffffffffffffffffffffffffffffffffff1602179055508173ffffffffffffffffffffffffffffffffffffffff168173ffffffffffffffffffffffffffffffffffffffff167f8be0079c531659141344cd1fd0a4f28419497f9722a3daafe3b4186f6b6457e060405160405180910390a35050565b600081519050919050565b7f4e487b7100000000000000000000000000000000000000000000000000000000600052604160045260246000fd5b7f4e487b7100000000000000000000000000000000000000000000000000000000600052602260045260246000fd5b600060028204905060018216806200027a57607f821691505b60208210810362000290576200028f62000232565b5b50919050565b60008190508160005260206000209050919050565b60006020601f8301049050919050565b600082821b905092915050565b600060088302620002fa7fffffffffffffffffffffffffffffffffffffffffffffffffffffffffffffffff82620002bb565b620003068683620002bb565b95508019841693508086168417925050509392505050565b6000819050919050565b6000819050919050565b6000620003536200034d62000347846200031e565b62000328565b6200031e565b9050919050565b6000819050919050565b6200036f8362000332565b620003876200037e826200035a565b848454620002c8565b825550505050565b600090565b6200039e6200038f565b620003ab81848462000364565b505050565b5b81811015620003d357620003c760008262000394565b600181019050620003b1565b5050565b601f8211156200042257620003ec8162000296565b620003f784620002ab565b8101602085101562000407578190505b6200041f6200041685620002ab565b830182620003b0565b50505b505050565b600082821c905092915050565b6000620004476000198460080262000427565b1980831691505092915050565b600062000462838362000434565b9150826002028217905092915050565b6200047d82620001f8565b67ffffffffffffffff81111562000499576200049862000203565b5b620004a5825462000261565b620004b2828285620003d7565b600060209050601f831160018114620004ea5760008415620004d5578287015190505b620004e1858262000454565b86555062000551565b601f198416620004fa8662000296565b60005b828110156200052457848901518255600182019150602085019450602081019050620004fd565b8683101562000544578489015162000540601f89168262000434565b8355505b6001600288020188555050505b505050505050565b600073ffffffffffffffffffffffffffffffffffffffff82169050919050565b6000620005868262000559565b9050919050565b620005988162000579565b82525050565b6000602082019050620005b560008301846200058d565b92915050565b613f8c80620005cb6000396000f3fe6080604052600436106101cd5760003560e01c806370a08231116100f7578063a22cb46511610095578063c87b56dd11610064578063c87b56dd146106df578063daf62ebb1461071c578063e985e9c514610745578063f2fde38b14610782576101cd565b8063a22cb46514610627578063af296da114610650578063afb5604e1461068d578063b88d4fde146106b6576101cd565b80638da5cb5b116100d15780638da5cb5b14610569578063953865c11461059457806395d89b41146105bf5780639cb04aef146105ea576101cd565b806370a08231146104d8578063715018a61461051557806374bc86561461052c576101cd565b806318160ddd1161016f57806342842e0e1161013e57806342842e0e146103f05780634e7497fc1461041957806361a5672d146104565780636352211e1461049b576101cd565b806318160ddd146103575780631b2ef1ca1461038257806321b9656e1461039e57806323b872dd146103c7576101cd565b8063095ea7b3116101ab578063095ea7b3146102775780630b65ea16146102a05780630ef7ec74146102dd578063175372251461031a576101cd565b806301ffc9a7146101d257806306fdde031461020f578063081812fc1461023a575b600080fd5b3480156101de57600080fd5b506101f960048036038101906101f49190612c98565b6107ab565b6040516102069190612ce0565b60405180910390f35b34801561021b57600080fd5b5061022461088d565b6040516102319190612d8b565b60405180910390f35b34801561024657600080fd5b50610261600480360381019061025c9190612de3565b61091f565b60405161026e9190612e51565b60405180910390f35b34801561028357600080fd5b5061029e60048036038101906102999190612e98565b61093b565b005b3480156102ac57600080fd5b506102c760048036038101906102c29190612de3565b610951565b6040516102d49190612ce0565b60405180910390f35b3480156102e957600080fd5b5061030460048036038101906102ff9190612de3565b610971565b6040516103119190612f96565b60405180910390f35b34801561032657600080fd5b50610341600480360381019061033c9190612de3565b6109dc565b60405161034e9190612ce0565b60405180910390f35b34801561036357600080fd5b5061036c6109fc565b6040516103799190612fc7565b60405180910390f35b61039c60048036038101906103979190612fe2565b610a02565b005b3480156103aa57600080fd5b506103c560048036038101906103c09190612e98565b610d41565b005b3480156103d357600080fd5b506103ee60048036038101906103e99190613022565b610e3d565b005b3480156103fc57600080fd5b5061041760048036038101906104129190613022565b610f3f565b005b34801561042557600080fd5b50610440600480360381019061043b9190612fe2565b610f5f565b60405161044d9190612fc7565b60405180910390f35b34801561046257600080fd5b5061047d60048036038101906104789190612de3565b610f90565b60405161049299989796959493929190613075565b60405180910390f35b3480156104a757600080fd5b506104c260048036038101906104bd9190612de3565b611286565b6040516104cf9190612e51565b60405180910390f35b3480156104e457600080fd5b506104ff60048036038101906104fa9190613125565b611298565b60405161050c9190612fc7565b60405180910390f35b34801561052157600080fd5b5061052a611352565b005b34801561053857600080fd5b50610553600480360381019061054e9190612de3565b611366565b604051610560919061327d565b60405180910390f35b34801561057557600080fd5b5061057e611696565b60405161058b9190612e51565b60405180910390f35b3480156105a057600080fd5b506105a96116c0565b6040516105b69190612fc7565b60405180910390f35b3480156105cb57600080fd5b506105d46116c6565b6040516105e19190612d8b565b60405180910390f35b3480156105f657600080fd5b50610611600480360381019061060c919061329f565b611758565b60405161061e9190612ce0565b60405180910390f35b34801561063357600080fd5b5061064e6004803603810190610649919061330b565b611787565b005b34801561065c57600080fd5b5061067760048036038101906106729190612fe2565b61179d565b6040516106849190612e51565b60405180910390f35b34801561069957600080fd5b506106b460048036038101906106af9190613480565b6117df565b005b3480156106c257600080fd5b506106dd60048036038101906106d8919061364f565b6118f9565b005b3480156106eb57600080fd5b5061070660048036038101906107019190612de3565b61191e565b6040516107139190612d8b565b60405180910390f35b34801561072857600080fd5b50610743600480360381019061073e9190612de3565b611987565b005b34801561075157600080fd5b5061076c600480360381019061076791906136d2565b611a8f565b6040516107799190612ce0565b60405180910390f35b34801561078e57600080fd5b506107a960048036038101906107a49190613125565b611b23565b005b60007f80ac58cd000000000000000000000000000000000000000000000000000000007bffffffffffffffffffffffffffffffffffffffffffffffffffffffff1916827bffffffffffffffffffffffffffffffffffffffffffffffffffffffff1916148061087657507f5b5e139f000000000000000000000000000000000000000000000000000000007bffffffffffffffffffffffffffffffffffffffffffffffffffffffff1916827bffffffffffffffffffffffffffffffffffffffffffffffffffffffff1916145b80610886575061088582611ba9565b5b9050919050565b60606000805461089c90613741565b80601f01602080910402602001604051908101604052809291908181526020018280546108c890613741565b80156109155780601f106108ea57610100808354040283529160200191610915565b820191906000526020600020905b8154815290600101906020018083116108f857829003601f168201915b5050505050905090565b600061092a82611c13565b5061093482611c9b565b9050919050565b61094d8282610948611cd8565b611ce0565b5050565b600e6020528060005260406000206000915054906101000a900460ff1681565b6060600c60008381526020019081526020016000208054806020026020016040519081016040528092919081815260200182805480156109d057602002820191906000526020600020905b8154815260200190600101908083116109bc575b50505050509050919050565b600d6020528060005260406000206000915054906101000a900460ff1681565b60085481565b60008214158015610a1557506007548211155b610a54576040517f08c379a0000000000000000000000000000000000000000000000000000000008152600401610a4b906137be565b60405180910390fd5b6009600083815260200190815260200160002060020154341015610aad576040517f08c379a0000000000000000000000000000000000000000000000000000000008152600401610aa49061382a565b60405180910390fd5b600073ffffffffffffffffffffffffffffffffffffffff16600a6000848152602001908152602001600020600083815260200190815260200160002060009054906101000a900473ffffffffffffffffffffffffffffffffffffffff1673ffffffffffffffffffffffffffffffffffffffff1614610b60576040517f08c379a0000000000000000000000000000000000000000000000000000000008152600401610b5790613896565b60405180910390fd5b6009600083815260200190815260200160002060040154811115610bb9576040517f08c379a0000000000000000000000000000000000000000000000000000000008152600401610bb090613902565b60405180910390fd5b60086000815480929190610bcc90613951565b9190505550600960008381526020019081526020016000206003016000815480929190610bf890613999565b91905055506001600b600084815260200190815260200160002060003373ffffffffffffffffffffffffffffffffffffffff1673ffffffffffffffffffffffffffffffffffffffff16815260200190815260200160002060006101000a81548160ff02191690831515021790555033600a6000848152602001908152602001600020600083815260200190815260200160002060006101000a81548173ffffffffffffffffffffffffffffffffffffffff021916908373ffffffffffffffffffffffffffffffffffffffff160217905550600c60008381526020019081526020016000208190806001815401808255809150506001900390600052602060002001600090919091909150556001600e6000600854815260200190815260200160002060006101000a81548160ff021916908315150217905550610d3d33600854611cf2565b5050565b600e600082815260200190815260200160002060009054906101000a900460ff16610da1576040517f08c379a0000000000000000000000000000000000000000000000000000000008152600401610d9890613a0e565b60405180910390fd5b600d600082815260200190815260200160002060009054906101000a900460ff1615610e02576040517f08c379a0000000000000000000000000000000000000000000000000000000008152600401610df990613a7a565b60405180910390fd5b610e0d338383611d10565b6001600e600083815260200190815260200160002060006101000a81548160ff0219169083151502179055505050565b600073ffffffffffffffffffffffffffffffffffffffff168273ffffffffffffffffffffffffffffffffffffffff1603610eaf5760006040517f64a0ae92000000000000000000000000000000000000000000000000000000008152600401610ea69190612e51565b60405180910390fd5b6000610ec38383610ebe611cd8565b611e7d565b90508373ffffffffffffffffffffffffffffffffffffffff168173ffffffffffffffffffffffffffffffffffffffff1614610f39578382826040517f64283d7b000000000000000000000000000000000000000000000000000000008152600401610f3093929190613a9a565b60405180910390fd5b50505050565b610f5a838383604051806020016040528060008152506118f9565b505050565b600c6020528160005260406000208181548110610f7b57600080fd5b90600052602060002001600091509150505481565b6009602052806000526040600020600091509050806000015490806001018054610fb990613741565b80601f0160208091040260200160405190810160405280929190818152602001828054610fe590613741565b80156110325780601f1061100757610100808354040283529160200191611032565b820191906000526020600020905b81548152906001019060200180831161101557829003601f168201915b50505050509080600201549080600301549080600401549080600501805461105990613741565b80601f016020809104026020016040519081016040528092919081815260200182805461108590613741565b80156110d25780601f106110a7576101008083540402835291602001916110d2565b820191906000526020600020905b8154815290600101906020018083116110b557829003601f168201915b5050505050908060060180546110e790613741565b80601f016020809104026020016040519081016040528092919081815260200182805461111390613741565b80156111605780601f1061113557610100808354040283529160200191611160565b820191906000526020600020905b81548152906001019060200180831161114357829003601f168201915b50505050509080600701805461117590613741565b80601f01602080910402602001604051908101604052809291908181526020018280546111a190613741565b80156111ee5780601f106111c3576101008083540402835291602001916111ee565b820191906000526020600020905b8154815290600101906020018083116111d157829003601f168201915b50505050509080600801805461120390613741565b80601f016020809104026020016040519081016040528092919081815260200182805461122f90613741565b801561127c5780601f106112515761010080835404028352916020019161127c565b820191906000526020600020905b81548152906001019060200180831161125f57829003601f168201915b5050505050905089565b600061129182611c13565b9050919050565b60008073ffffffffffffffffffffffffffffffffffffffff168273ffffffffffffffffffffffffffffffffffffffff160361130b5760006040517f89c62b640000000000000000000000000000000000000000000000000000000081526004016113029190612e51565b60405180910390fd5b600360008373ffffffffffffffffffffffffffffffffffffffff1673ffffffffffffffffffffffffffffffffffffffff168152602001908152602001600020549050919050565b61135a612097565b611364600061211e565b565b61136e612be0565b6009600083815260200190815260200160002060405180610120016040529081600082015481526020016001820180546113a790613741565b80601f01602080910402602001604051908101604052809291908181526020018280546113d390613741565b80156114205780601f106113f557610100808354040283529160200191611420565b820191906000526020600020905b81548152906001019060200180831161140357829003601f168201915b5050505050815260200160028201548152602001600382015481526020016004820154815260200160058201805461145790613741565b80601f016020809104026020016040519081016040528092919081815260200182805461148390613741565b80156114d05780601f106114a5576101008083540402835291602001916114d0565b820191906000526020600020905b8154815290600101906020018083116114b357829003601f168201915b505050505081526020016006820180546114e990613741565b80601f016020809104026020016040519081016040528092919081815260200182805461151590613741565b80156115625780601f1061153757610100808354040283529160200191611562565b820191906000526020600020905b81548152906001019060200180831161154557829003601f168201915b5050505050815260200160078201805461157b90613741565b80601f01602080910402602001604051908101604052809291908181526020018280546115a790613741565b80156115f45780601f106115c9576101008083540402835291602001916115f4565b820191906000526020600020905b8154815290600101906020018083116115d757829003601f168201915b5050505050815260200160088201805461160d90613741565b80601f016020809104026020016040519081016040528092919081815260200182805461163990613741565b80156116865780601f1061165b57610100808354040283529160200191611686565b820191906000526020600020905b81548152906001019060200180831161166957829003601f168201915b5050505050815250509050919050565b6000600660009054906101000a900473ffffffffffffffffffffffffffffffffffffffff16905090565b60075481565b6060600180546116d590613741565b80601f016020809104026020016040519081016040528092919081815260200182805461170190613741565b801561174e5780601f106117235761010080835404028352916020019161174e565b820191906000526020600020905b81548152906001019060200180831161173157829003601f168201915b5050505050905090565b600b6020528160005260406000206020528060005260406000206000915091509054906101000a900460ff1681565b611799611792611cd8565b83836121e4565b5050565b600a6020528160005260406000206020528060005260406000206000915091509054906101000a900473ffffffffffffffffffffffffffffffffffffffff1681565b6117e7612097565b600760008154809291906117fa90613951565b91905055506040518061012001604052806007548152602001888152602001878152602001868152602001868152602001858152602001848152602001838152602001828152506009600060075481526020019081526020016000206000820151816000015560208201518160010190816118759190613c7d565b5060408201518160020155606082015181600301556080820151816004015560a08201518160050190816118a99190613c7d565b5060c08201518160060190816118bf9190613c7d565b5060e08201518160070190816118d59190613c7d565b506101008201518160080190816118ec9190613c7d565b5090505050505050505050565b611904848484610e3d565b61191861190f611cd8565b85858585612353565b50505050565b606061192982611c13565b506000611934612504565b90506000815111611954576040518060200160405280600081525061197f565b8061195e8461251b565b60405160200161196f929190613d8b565b6040516020818303038152906040525b915050919050565b61198f612097565b60085481116119d3576040517f08c379a00000000000000000000000000000000000000000000000000000000081526004016119ca90613dfb565b60405180910390fd5b600d600082815260200190815260200160002060009054906101000a900460ff1615611a34576040517f08c379a0000000000000000000000000000000000000000000000000000000008152600401611a2b90613a7a565b60405180910390fd5b6001600d600083815260200190815260200160002060006101000a81548160ff0219169083151502179055506000600e600083815260200190815260200160002060006101000a81548160ff02191690831515021790555050565b6000600560008473ffffffffffffffffffffffffffffffffffffffff1673ffffffffffffffffffffffffffffffffffffffff16815260200190815260200160002060008373ffffffffffffffffffffffffffffffffffffffff1673ffffffffffffffffffffffffffffffffffffffff16815260200190815260200160002060009054906101000a900460ff16905092915050565b611b2b612097565b600073ffffffffffffffffffffffffffffffffffffffff168173ffffffffffffffffffffffffffffffffffffffff1603611b9d5760006040517f1e4fbdf7000000000000000000000000000000000000000000000000000000008152600401611b949190612e51565b60405180910390fd5b611ba68161211e565b50565b60007f01ffc9a7000000000000000000000000000000000000000000000000000000007bffffffffffffffffffffffffffffffffffffffffffffffffffffffff1916827bffffffffffffffffffffffffffffffffffffffffffffffffffffffff1916149050919050565b600080611c1f836125e9565b9050600073ffffffffffffffffffffffffffffffffffffffff168173ffffffffffffffffffffffffffffffffffffffff1603611c9257826040517f7e273289000000000000000000000000000000000000000000000000000000008152600401611c899190612fc7565b60405180910390fd5b80915050919050565b60006004600083815260200190815260200160002060009054906101000a900473ffffffffffffffffffffffffffffffffffffffff169050919050565b600033905090565b611ced8383836001612626565b505050565b611d0c8282604051806020016040528060008152506127eb565b5050565b600073ffffffffffffffffffffffffffffffffffffffff168273ffffffffffffffffffffffffffffffffffffffff1603611d825760006040517f64a0ae92000000000000000000000000000000000000000000000000000000008152600401611d799190612e51565b60405180910390fd5b6000611d9083836000611e7d565b9050600073ffffffffffffffffffffffffffffffffffffffff168173ffffffffffffffffffffffffffffffffffffffff1603611e0357816040517f7e273289000000000000000000000000000000000000000000000000000000008152600401611dfa9190612fc7565b60405180910390fd5b8373ffffffffffffffffffffffffffffffffffffffff168173ffffffffffffffffffffffffffffffffffffffff1614611e77578382826040517f64283d7b000000000000000000000000000000000000000000000000000000008152600401611e6e93929190613a9a565b60405180910390fd5b50505050565b600080611e89846125e9565b9050600073ffffffffffffffffffffffffffffffffffffffff168373ffffffffffffffffffffffffffffffffffffffff1614611ecb57611eca81848661280f565b5b600073ffffffffffffffffffffffffffffffffffffffff168173ffffffffffffffffffffffffffffffffffffffff1614611f5c57611f0d600085600080612626565b6001600360008373ffffffffffffffffffffffffffffffffffffffff1673ffffffffffffffffffffffffffffffffffffffff168152602001908152602001600020600082825403925050819055505b600073ffffffffffffffffffffffffffffffffffffffff168573ffffffffffffffffffffffffffffffffffffffff1614611fdf576001600360008773ffffffffffffffffffffffffffffffffffffffff1673ffffffffffffffffffffffffffffffffffffffff168152602001908152602001600020600082825401925050819055505b846002600086815260200190815260200160002060006101000a81548173ffffffffffffffffffffffffffffffffffffffff021916908373ffffffffffffffffffffffffffffffffffffffff160217905550838573ffffffffffffffffffffffffffffffffffffffff168273ffffffffffffffffffffffffffffffffffffffff167fddf252ad1be2c89b69c2b068fc378daa952ba7f163c4a11628f55a4df523b3ef60405160405180910390a4809150509392505050565b61209f611cd8565b73ffffffffffffffffffffffffffffffffffffffff166120bd611696565b73ffffffffffffffffffffffffffffffffffffffff161461211c576120e0611cd8565b6040517f118cdaa70000000000000000000000000000000000000000000000000000000081526004016121139190612e51565b60405180910390fd5b565b6000600660009054906101000a900473ffffffffffffffffffffffffffffffffffffffff16905081600660006101000a81548173ffffffffffffffffffffffffffffffffffffffff021916908373ffffffffffffffffffffffffffffffffffffffff1602179055508173ffffffffffffffffffffffffffffffffffffffff168173ffffffffffffffffffffffffffffffffffffffff167f8be0079c531659141344cd1fd0a4f28419497f9722a3daafe3b4186f6b6457e060405160405180910390a35050565b600073ffffffffffffffffffffffffffffffffffffffff168273ffffffffffffffffffffffffffffffffffffffff160361225557816040517f5b08ba1800000000000000000000000000000000000000000000000000000000815260040161224c9190612e51565b60405180910390fd5b80600560008573ffffffffffffffffffffffffffffffffffffffff1673ffffffffffffffffffffffffffffffffffffffff16815260200190815260200160002060008473ffffffffffffffffffffffffffffffffffffffff1673ffffffffffffffffffffffffffffffffffffffff16815260200190815260200160002060006101000a81548160ff0219169083151502179055508173ffffffffffffffffffffffffffffffffffffffff168373ffffffffffffffffffffffffffffffffffffffff167f17307eab39ab6107e8899845ad3d59bd9653f200f220920489ca2b5937696c31836040516123469190612ce0565b60405180910390a3505050565b60008373ffffffffffffffffffffffffffffffffffffffff163b11156124fd578273ffffffffffffffffffffffffffffffffffffffff1663150b7a02868685856040518563ffffffff1660e01b81526004016123b29493929190613e70565b6020604051808303816000875af19250505080156123ee57506040513d601f19601f820116820180604052508101906123eb9190613ed1565b60015b612472573d806000811461241e576040519150601f19603f3d011682016040523d82523d6000602084013e612423565b606091505b50600081510361246a57836040517f64a0ae920000000000000000000000000000000000000000000000000000000081526004016124619190612e51565b60405180910390fd5b805181602001fd5b63150b7a0260e01b7bffffffffffffffffffffffffffffffffffffffffffffffffffffffff1916817bffffffffffffffffffffffffffffffffffffffffffffffffffffffff1916146124fb57836040517f64a0ae920000000000000000000000000000000000000000000000000000000081526004016124f29190612e51565b60405180910390fd5b505b5050505050565b606060405180602001604052806000815250905090565b60606000600161252a846128d3565b01905060008167ffffffffffffffff81111561254957612548613355565b5b6040519080825280601f01601f19166020018201604052801561257b5781602001600182028036833780820191505090505b509050600082602001820190505b6001156125de578080600190039150507f3031323334353637383961626364656600000000000000000000000000000000600a86061a8153600a85816125d2576125d1613efe565b5b04945060008503612589575b819350505050919050565b60006002600083815260200190815260200160002060009054906101000a900473ffffffffffffffffffffffffffffffffffffffff169050919050565b808061265f5750600073ffffffffffffffffffffffffffffffffffffffff168273ffffffffffffffffffffffffffffffffffffffff1614155b1561279357600061266f84611c13565b9050600073ffffffffffffffffffffffffffffffffffffffff168373ffffffffffffffffffffffffffffffffffffffff16141580156126da57508273ffffffffffffffffffffffffffffffffffffffff168173ffffffffffffffffffffffffffffffffffffffff1614155b80156126ed57506126eb8184611a8f565b155b1561272f57826040517fa9fbf51f0000000000000000000000000000000000000000000000000000000081526004016127269190612e51565b60405180910390fd5b811561279157838573ffffffffffffffffffffffffffffffffffffffff168273ffffffffffffffffffffffffffffffffffffffff167f8c5be1e5ebec7d5bd14f71427d1e84f3dd0314c0f7b2291e5b200ac8c7c3b92560405160405180910390a45b505b836004600085815260200190815260200160002060006101000a81548173ffffffffffffffffffffffffffffffffffffffff021916908373ffffffffffffffffffffffffffffffffffffffff16021790555050505050565b6127f58383612a26565b61280a612800611cd8565b6000858585612353565b505050565b61281a838383612b1f565b6128ce57600073ffffffffffffffffffffffffffffffffffffffff168373ffffffffffffffffffffffffffffffffffffffff160361288f57806040517f7e2732890000000000000000000000000000000000000000000000000000000081526004016128869190612fc7565b60405180910390fd5b81816040517f177e802f0000000000000000000000000000000000000000000000000000000081526004016128c5929190613f2d565b60405180910390fd5b505050565b600080600090507a184f03e93ff9f4daa797ed6e38ed64bf6a1f0100000000000000008310612931577a184f03e93ff9f4daa797ed6e38ed64bf6a1f010000000000000000838161292757612926613efe565b5b0492506040810190505b6d04ee2d6d415b85acef8100000000831061296e576d04ee2d6d415b85acef8100000000838161296457612963613efe565b5b0492506020810190505b662386f26fc10000831061299d57662386f26fc10000838161299357612992613efe565b5b0492506010810190505b6305f5e10083106129c6576305f5e10083816129bc576129bb613efe565b5b0492506008810190505b61271083106129eb5761271083816129e1576129e0613efe565b5b0492506004810190505b60648310612a0e5760648381612a0457612a03613efe565b5b0492506002810190505b600a8310612a1d576001810190505b80915050919050565b600073ffffffffffffffffffffffffffffffffffffffff168273ffffffffffffffffffffffffffffffffffffffff1603612a985760006040517f64a0ae92000000000000000000000000000000000000000000000000000000008152600401612a8f9190612e51565b60405180910390fd5b6000612aa683836000611e7d565b9050600073ffffffffffffffffffffffffffffffffffffffff168173ffffffffffffffffffffffffffffffffffffffff1614612b1a5760006040517f73c6ac6e000000000000000000000000000000000000000000000000000000008152600401612b119190612e51565b60405180910390fd5b505050565b60008073ffffffffffffffffffffffffffffffffffffffff168373ffffffffffffffffffffffffffffffffffffffff1614158015612bd757508273ffffffffffffffffffffffffffffffffffffffff168473ffffffffffffffffffffffffffffffffffffffff161480612b985750612b978484611a8f565b5b80612bd657508273ffffffffffffffffffffffffffffffffffffffff16612bbe83611c9b565b73ffffffffffffffffffffffffffffffffffffffff16145b5b90509392505050565b6040518061012001604052806000815260200160608152602001600081526020016000815260200160008152602001606081526020016060815260200160608152602001606081525090565b6000604051905090565b600080fd5b600080fd5b60007fffffffff0000000000000000000000000000000000000000000000000000000082169050919050565b612c7581612c40565b8114612c8057600080fd5b50565b600081359050612c9281612c6c565b92915050565b600060208284031215612cae57612cad612c36565b5b6000612cbc84828501612c83565b91505092915050565b60008115159050919050565b612cda81612cc5565b82525050565b6000602082019050612cf56000830184612cd1565b92915050565b600081519050919050565b600082825260208201905092915050565b60005b83811015612d35578082015181840152602081019050612d1a565b60008484015250505050565b6000601f19601f8301169050919050565b6000612d5d82612cfb565b612d678185612d06565b9350612d77818560208601612d17565b612d8081612d41565b840191505092915050565b60006020820190508181036000830152612da58184612d52565b905092915050565b6000819050919050565b612dc081612dad565b8114612dcb57600080fd5b50565b600081359050612ddd81612db7565b92915050565b600060208284031215612df957612df8612c36565b5b6000612e0784828501612dce565b91505092915050565b600073ffffffffffffffffffffffffffffffffffffffff82169050919050565b6000612e3b82612e10565b9050919050565b612e4b81612e30565b82525050565b6000602082019050612e666000830184612e42565b92915050565b612e7581612e30565b8114612e8057600080fd5b50565b600081359050612e9281612e6c565b92915050565b60008060408385031215612eaf57612eae612c36565b5b6000612ebd85828601612e83565b9250506020612ece85828601612dce565b9150509250929050565b600081519050919050565b600082825260208201905092915050565b6000819050602082019050919050565b612f0d81612dad565b82525050565b6000612f1f8383612f04565b60208301905092915050565b6000602082019050919050565b6000612f4382612ed8565b612f4d8185612ee3565b9350612f5883612ef4565b8060005b83811015612f89578151612f708882612f13565b9750612f7b83612f2b565b925050600181019050612f5c565b5085935050505092915050565b60006020820190508181036000830152612fb08184612f38565b905092915050565b612fc181612dad565b82525050565b6000602082019050612fdc6000830184612fb8565b92915050565b60008060408385031215612ff957612ff8612c36565b5b600061300785828601612dce565b925050602061301885828601612dce565b9150509250929050565b60008060006060848603121561303b5761303a612c36565b5b600061304986828701612e83565b935050602061305a86828701612e83565b925050604061306b86828701612dce565b9150509250925092565b60006101208201905061308b600083018c612fb8565b818103602083015261309d818b612d52565b90506130ac604083018a612fb8565b6130b96060830189612fb8565b6130c66080830188612fb8565b81810360a08301526130d88187612d52565b905081810360c08301526130ec8186612d52565b905081810360e08301526131008185612d52565b90508181036101008301526131158184612d52565b90509a9950505050505050505050565b60006020828403121561313b5761313a612c36565b5b600061314984828501612e83565b91505092915050565b600082825260208201905092915050565b600061316e82612cfb565b6131788185613152565b9350613188818560208601612d17565b61319181612d41565b840191505092915050565b6000610120830160008301516131b56000860182612f04565b50602083015184820360208601526131cd8282613163565b91505060408301516131e26040860182612f04565b5060608301516131f56060860182612f04565b5060808301516132086080860182612f04565b5060a083015184820360a08601526132208282613163565b91505060c083015184820360c086015261323a8282613163565b91505060e083015184820360e08601526132548282613163565b9150506101008301518482036101008601526132708282613163565b9150508091505092915050565b60006020820190508181036000830152613297818461319c565b905092915050565b600080604083850312156132b6576132b5612c36565b5b60006132c485828601612dce565b92505060206132d585828601612e83565b9150509250929050565b6132e881612cc5565b81146132f357600080fd5b50565b600081359050613305816132df565b92915050565b6000806040838503121561332257613321612c36565b5b600061333085828601612e83565b9250506020613341858286016132f6565b9150509250929050565b600080fd5b600080fd5b7f4e487b7100000000000000000000000000000000000000000000000000000000600052604160045260246000fd5b61338d82612d41565b810181811067ffffffffffffffff821117156133ac576133ab613355565b5b80604052505050565b60006133bf612c2c565b90506133cb8282613384565b919050565b600067ffffffffffffffff8211156133eb576133ea613355565b5b6133f482612d41565b9050602081019050919050565b82818337600083830152505050565b600061342361341e846133d0565b6133b5565b90508281526020810184848401111561343f5761343e613350565b5b61344a848285613401565b509392505050565b600082601f8301126134675761346661334b565b5b8135613477848260208601613410565b91505092915050565b600080600080600080600060e0888a03121561349f5761349e612c36565b5b600088013567ffffffffffffffff8111156134bd576134bc612c3b565b5b6134c98a828b01613452565b97505060206134da8a828b01612dce565b96505060406134eb8a828b01612dce565b955050606088013567ffffffffffffffff81111561350c5761350b612c3b565b5b6135188a828b01613452565b945050608088013567ffffffffffffffff81111561353957613538612c3b565b5b6135458a828b01613452565b93505060a088013567ffffffffffffffff81111561356657613565612c3b565b5b6135728a828b01613452565b92505060c088013567ffffffffffffffff81111561359357613592612c3b565b5b61359f8a828b01613452565b91505092959891949750929550565b600067ffffffffffffffff8211156135c9576135c8613355565b5b6135d282612d41565b9050602081019050919050565b60006135f26135ed846135ae565b6133b5565b90508281526020810184848401111561360e5761360d613350565b5b613619848285613401565b509392505050565b600082601f8301126136365761363561334b565b5b81356136468482602086016135df565b91505092915050565b6000806000806080858703121561366957613668612c36565b5b600061367787828801612e83565b945050602061368887828801612e83565b935050604061369987828801612dce565b925050606085013567ffffffffffffffff8111156136ba576136b9612c3b565b5b6136c687828801613621565b91505092959194509250565b600080604083850312156136e9576136e8612c36565b5b60006136f785828601612e83565b925050602061370885828601612e83565b9150509250929050565b7f4e487b7100000000000000000000000000000000000000000000000000000000600052602260045260246000fd5b6000600282049050600182168061375957607f821691505b60208210810361376c5761376b613712565b5b50919050565b7f496e76616c6964206f63636173696f6e20494400000000000000000000000000600082015250565b60006137a8601383612d06565b91506137b382613772565b602082019050919050565b600060208201905081810360008301526137d78161379b565b9050919050565b7f496e73756666696369656e74204554482073656e740000000000000000000000600082015250565b6000613814601583612d06565b915061381f826137de565b602082019050919050565b6000602082019050818103600083015261384381613807565b9050919050565b7f5365617420616c72656164792074616b656e0000000000000000000000000000600082015250565b6000613880601283612d06565b915061388b8261384a565b602082019050919050565b600060208201905081810360008301526138af81613873565b9050919050565b7f496e76616c69642073656174206e756d62657200000000000000000000000000600082015250565b60006138ec601383612d06565b91506138f7826138b6565b602082019050919050565b6000602082019050818103600083015261391b816138df565b9050919050565b7f4e487b7100000000000000000000000000000000000000000000000000000000600052601160045260246000fd5b600061395c82612dad565b91507fffffffffffffffffffffffffffffffffffffffffffffffffffffffffffffffff820361398e5761398d613922565b5b600182019050919050565b60006139a482612dad565b9150600082036139b7576139b6613922565b5b600182039050919050565b7f526573616c65206e6f7420616c6c6f7765640000000000000000000000000000600082015250565b60006139f8601283612d06565b9150613a03826139c2565b602082019050919050565b60006020820190508181036000830152613a27816139eb565b9050919050565b7f5469636b657420616c7265616479207573656400000000000000000000000000600082015250565b6000613a64601383612d06565b9150613a6f82613a2e565b602082019050919050565b60006020820190508181036000830152613a9381613a57565b9050919050565b6000606082019050613aaf6000830186612e42565b613abc6020830185612fb8565b613ac96040830184612e42565b949350505050565b60008190508160005260206000209050919050565b60006020601f8301049050919050565b600082821b905092915050565b600060088302613b337fffffffffffffffffffffffffffffffffffffffffffffffffffffffffffffffff82613af6565b613b3d8683613af6565b95508019841693508086168417925050509392505050565b6000819050919050565b6000613b7a613b75613b7084612dad565b613b55565b612dad565b9050919050565b6000819050919050565b613b9483613b5f565b613ba8613ba082613b81565b848454613b03565b825550505050565b600090565b613bbd613bb0565b613bc8818484613b8b565b505050565b5b81811015613bec57613be1600082613bb5565b600181019050613bce565b5050565b601f821115613c3157613c0281613ad1565b613c0b84613ae6565b81016020851015613c1a578190505b613c2e613c2685613ae6565b830182613bcd565b50505b505050565b600082821c905092915050565b6000613c5460001984600802613c36565b1980831691505092915050565b6000613c6d8383613c43565b9150826002028217905092915050565b613c8682612cfb565b67ffffffffffffffff811115613c9f57613c9e613355565b5b613ca98254613741565b613cb4828285613bf0565b600060209050601f831160018114613ce75760008415613cd5578287015190505b613cdf8582613c61565b865550613d47565b601f198416613cf586613ad1565b60005b82811015613d1d57848901518255600182019150602085019450602081019050613cf8565b86831015613d3a5784890151613d36601f891682613c43565b8355505b6001600288020188555050505b505050505050565b600081905092915050565b6000613d6582612cfb565b613d6f8185613d4f565b9350613d7f818560208601612d17565b80840191505092915050565b6000613d978285613d5a565b9150613da38284613d5a565b91508190509392505050565b7f5469636b657420646f6573206e6f742065786973740000000000000000000000600082015250565b6000613de5601583612d06565b9150613df082613daf565b602082019050919050565b60006020820190508181036000830152613e1481613dd8565b9050919050565b600081519050919050565b600082825260208201905092915050565b6000613e4282613e1b565b613e4c8185613e26565b9350613e5c818560208601612d17565b613e6581612d41565b840191505092915050565b6000608082019050613e856000830187612e42565b613e926020830186612e42565b613e9f6040830185612fb8565b8181036060830152613eb18184613e37565b905095945050505050565b600081519050613ecb81612c6c565b92915050565b600060208284031215613ee757613ee6612c36565b5b6000613ef584828501613ebc565b91505092915050565b7f4e487b7100000000000000000000000000000000000000000000000000000000600052601260045260246000fd5b6000604082019050613f426000830185612e42565b613f4f6020830184612fb8565b939250505056fea2646970667358221220e032dfec7b3a1f4b691259accf3b9f784d9abffd6ef2810efb5116c36d414dd964736f6c63430008140033",
  "linkReferences": {},
  "deployedLinkReferences": {}
}